:1000000007C1000033C1000031C100002FC1000052
:100010002DC100002BC1000029C1000027C1000034
:1000200025C1000023C1000021C100001FC1000044
:100030001DC100001BC1000019C1000017C1000054
:1000400015C10000D5C3000011C100000FC10000A0
:100050000DC100000BC1000009C100007DC40000FB
:1000600005C1000003C1000001C10000FFC0000085
:10007000FDC00000FBC00000F9C00000F7C0000098
:10008000E4C30000F3C00000F1C00000EFC00000B6
:10009000EDC00000EBC00000E9C00000BCC10000E2
:1000A000E5C00000E3C00000FDC30000DFC00000A9
:1000B000DDC00000DBC00000D9C0000020C400008B
:1000C000D5C00000D3C00000D1C00000CFC00000E8
:1000D000CDC00000CBC00000C9C00000C7C00000F8
:1000E000C5C00000B805BB05AA05AE05B405F205FC
:1000F000BF05C305C905CD05D105D705DB05DF055E
:10010000F205E505E905ED0500000A0B02090C0DF5
:100110000E080703040100000000000000000000BA
:1001200000000000000000000000000000000000CF
:10013000000000001211100000000000000000008C
:1001400000000000000000000000000000000102AC
:1001500010202008081020401020408002010201D9
:100160000804020101020408102040808040201091
:1001700008040201800402018040201008040201EA
:100180000804020101020408102040800102040852
:10019000102040800505050507050808080802022B
:1001A00002020A0A08080404040401010101010111
:1001B00001010303030303030303040707070C0CF4
:1001C0000C0C0C0C0C0C02020202060606060606BB
:1001D00006060B0B0B0B0B0B0B0B00002200250074
:1001E00028002B002E003100340002010000050120
:1001F00008010B0100002100240027002A002D0027
:100200003000330001010000040107010A01DF0191
:1002100011241FBECFEFD1E2DEBFCDBF00E00CBF87
:1002200012E0A0E0B2E0E4EFFCE000E00BBF02C0AF
:1002300007900D92A431B107D9F723E0A4E1B2E011
:1002400001C01D92A137B207E1F712E0C0E1D2E090
:1002500000E005C022970109FE010BBF45D5CE3055
:10026000D10780E00807B1F72DD542C5C9CE61E0BE
:100270008DE0B9C461E08DE0EFD468EE73E080E01A
:1002800090E0D7D360E08DE0E7D468EE73E080E0E3
:1002900090E0CFC38091430290E020914402821B02
:1002A000910908952091440280914302281750F447
:1002B000E22FF0E0EB5BFD4F808190E02F5F209319
:1002C000440208958FEF9FEF0895E09144028091DA
:1002D0004302E81730F4F0E0EB5BFD4F808190E0E3
:1002E00008958FEF9FEF08950895CF92DF92EF92D8
:1002F000FF920F931F93CF93DF937C01CB018A0171
:1003000020912002222389F0EB016B01C40ED51E3F
:10031000CC15DD0561F06991D701ED91FC9101905B
:10032000F081E02DC7011995F3CF642F4BD0C801A0
:10033000DF91CF911F910F91FF90EF90DF90CF90C1
:100340000895CF93DF931F92CDB7DEB769832091D5
:1003500020022223D1F020912102203240F021E01E
:1003600030E0FC013383228380E090E014C0809170
:100370002202E82FF0E0ED5DFD4F998190838F5FC1
:10038000809322028093210204C061E0CE01019695
:1003900019D081E090E00F90DF91CF910895FC019A
:1003A0001382128248EE53E060E070E0448355838C
:1003B0006683778388E092E091838083089584E167
:1003C00092E0EDCF613298F42091D202243089F48A
:1003D00060938702FC0189E892E0DC012A2F281B48
:1003E000261718F421912D93F9CF80E0089581E02C
:1003F000089582E0089585ED8093BC008091BC0053
:1004000084FDFCCF1092D202089585EC8093BC004D
:100410001092D20208951F920F920FB60F921124DC
:100420000BB60F922F933F934F935F936F937F93EE
:100430008F939F93AF93BF93EF93FF938091B900F6
:10044000887F803609F49CC068F5883209F45BC067
:1004500090F4803109F454C038F4882309F4F3C0CF
:10046000883009F44DC0F2C0883109F44CC08032A4
:1004700009F45DC0EBC0803409F468C048F48033EF
:1004800009F455C0883309F0E1C080936502A7C024
:10049000803509F44FC0883509F45DC0883409F00F
:1004A000D5C0D3C0883909F4C4C0A8F4883709F48A
:1004B00067C038F4883609F463C0803709F460C037
:1004C000C5C0883809F4B5C0803909F45FC08038E8
:1004D00009F0BCC05BC0803B09F483C038F4803AAB
:1004E00009F466C0883A09F47CC0B0C0803C09F4C5
:1004F000A4C0883C09F4A1C0883B09F487C0A6C009
:100500008091D10210C09091AA028091A9029817FF
:1005100070F5E091AA0281E08E0F8093AA02F0E0CC
:10052000E555FD4F80818093BB0085EC83C08093AF
:1005300065028BC0E091AA0281E08E0F8093AA022F
:100540008091BB00F0E0E555FD4F80839091AA02B9
:100550008091A9026BC0E091AA0281E08E0F809386
:10056000AA028091BB00F0E0E555FD4F80838091A9
:10057000D00281116AC081E08093CF0284EA5EC01C
:1005800083E08093D20210926602CFCF8091660200
:10059000803208F04EC0E091660281E08E0F8093B9
:1005A00066028091BB00F0E0E959FD4F8083BDCF2A
:1005B00080916602803230F4E0916602F0E0E95901
:1005C000FD4F108218DF6091660270E0E091CB026F
:1005D000F091CC0287E692E019951092660215DF41
:1005E00035C084E08093D202109288021092870274
:1005F000E091CD02F091CE02199580918702811190
:1006000005C081E08093870210928902E091880200
:1006100081E08E0F80938802F0E0E757FD4F8081E4
:100620008093BB009091880280918702981708F40C
:100630007CCF85E88093BC0009C085EC8093BC002A
:100640001092D20203C010926502D5DEFF91EF91A5
:10065000BF91AF919F918F917F916F915F914F91DA
:100660003F912F910F900BBE0F900FBE0F901F90D8
:100670001895CF92DF92EF92FF920F931F93CF9333
:10068000DF936C018B017A01EC01CC52DD4F888144
:1006900087FF04C0FB011182108223C02CE02C9D37
:1006A000C0012D9D900D11242881AC01420F511DD8
:1006B00027FD5A952091D30230E0421753078CF45E
:1006C0002881AC01420F511D27FD5A959A01FA016C
:1006D000EE0FFF1FE20FF31FE852FD4F208126FDB2
:1006E00019C088818F5F88838CE08C9D90018D9DDF
:1006F000300D11248881A901480F511D87FD5A959D
:100700008091D30290E048175907ACF488818C306F
:1007100034F111C02881820F911D27FD9A95FC01AB
:10072000EE0FFF1FE80FF91FE852FD4F808160E0D8
:100730008F7392D2D6CFF801808191810496803454
:100740009C4918F480E49CE904C0F80180819181FF
:100750000496F701918380838FEF888340C0F8016E
:10076000808191814881B901640F711D47FD7A959F
:10077000AB01FB01EE0FFF1FE40FF51FE852FD4F29
:1007800041815281840F951FF70191838083888175
:10079000A901480F511D87FD5A95FA01EE0FFF1F61
:1007A000E40FF51FE852FD4F808186FF18C0888155
:1007B000280F311D87FD3A95F901EE0FFF1FE20F5B
:1007C000F31FE852FD4F808161E08F73DF91CF917D
:1007D0001F910F91FF90EF90DF90CF903DC2DF917E
:1007E000CF911F910F91FF90EF90DF90CF900895E0
:1007F0001F920F920FB60F9211240BB60F922F93E8
:100800003F934F935F936F937F938F939F93AF9398
:10081000BF93EF93FF9348E850E064E870E081E015
:1008200090E027DFFF91EF91BF91AF919F918F9162
:100830007F916F915F914F913F912F910F900BBEE0
:100840000F900FBE0F901F9018951F920F920FB62A
:100850000F9211240BB60F922F933F934F935F93F8
:100860006F937F938F939F93AF93BF93EF93FF9378
:1008700048E950E064E970E082E090E0FADEFF9140
:10088000EF91BF91AF919F918F917F916F915F9108
:100890004F913F912F910F900BBE0F900FBE0F9075
:1008A0001F9018951F920F920FB60F9211240BB63E
:1008B0000F922F933F934F935F936F937F938F93F9
:1008C0009F93AF93BF93EF93FF9348EA50E064EA9E
:1008D00070E083E090E0CDDEFF91EF91BF91AF91AA
:1008E0009F918F917F916F915F914F913F912F9148
:1008F0000F900BBE0F900FBE0F901F9018951F9278
:100900000F920FB60F9211240BB60F922F933F93B5
:100910004F935F936F937F938F939F93AF93BF9307
:10092000EF93FF9348E251E064E271E080E090E0F1
:10093000A0DEFF91EF91BF91AF919F918F917F9139
:100940006F915F914F913F912F910F900BBE0F9040
:100950000FBE0F901F9018951F920F920FB60F9217
:1009600011242F933F938F939F93AF93BF938091C5
:10097000690390916A03A0916B03B0916C0330916D
:10098000680323E0230F2D3720F40196A11DB11D2C
:1009900005C026E8230F0296A11DB11D2093680310
:1009A0008093690390936A03A0936B03B0936C03E5
:1009B00080916D0390916E03A0916F03B0917003CD
:1009C0000196A11DB11D80936D0390936E03A093BA
:1009D0006F03B0937003BF91AF919F918F913F913F
:1009E0002F910F900FBE0F901F9018953FB7F8945E
:1009F00080916D0390916E03A0916F03B09170038D
:100A000026B5A89B05C02F3F19F00196A11DB11D69
:100A10003FBF6627782F892F9A2F620F711D811D86
:100A2000911D42E0660F771F881F991F4A95D1F7E5
:100A30000895CF92DF92EF92FF92CF93DF936B01F5
:100A40007C01D4DFEB01C114D104E104F10479F09D
:100A500044D1CCDF6C1B7D0B683E7340A0F381E07A
:100A6000C81AD108E108F108C851DC4FECCFDF917A
:100A7000CF91FF90EF90DF90CF900895789484B558
:100A8000826084BD84B5816084BD85B5826085BD8A
:100A900085B5816085BDEEE6F0E080818160808370
:100AA000E1E8F0E010828081826080838081816053
:100AB0008083E0E8F0E0808181608083E1EBF0E01A
:100AC000808184608083E0EBF0E0808181608083BE
:100AD000E1E9F0E0808182608083808181608083B1
:100AE000E0E9F0E0808181608083E1EAF0E08081EC
:100AF00082608083808181608083E0EAF0E0808191
:100B000081608083E1E2F1E0808182608083808186
:100B100081608083E0E2F1E0808181608083EAE7A8
:100B2000F0E0808184608083808182608083808126
:100B3000816080838081806880831092C1000895E5
:100B400090E0FC013197E231F10508F04BC0EE581E
:100B5000FF4FC4C0809180008F7703C080918000D8
:100B60008F7D80938000089580918000877FF9CFEA
:100B700084B58F7702C084B58F7D84BD0895809140
:100B8000B0008F7703C08091B0008F7D8093B0005C
:100B90000895809190008F7707C0809190008F7D9D
:100BA00003C080919000877F80939000089580918A
:100BB000A0008F7707C08091A0008F7D03C0809137
:100BC000A000877F8093A0000895809120018F77F7
:100BD00007C0809120018F7D03C080912001877F15
:100BE000809320010895CF93DF9390E0FC01E25BB6
:100BF000FE4F2491FC01EC56FE4F8491882349F16D
:100C000090E0880F991FFC01EC50FE4FA591B49124
:100C100086529E4FFC01C591D4919FB7611108C0C7
:100C2000F8948C91209582238C93888182230AC02A
:100C3000623051F4F8948C91322F309583238C9349
:100C40008881822B888304C0F8948C91822B8C93AA
:100C50009FBFDF91CF9108950F931F93CF93DF93A1
:100C60001F92CDB7DEB7282F30E0F901E85FFE4FC5
:100C70008491F901E25BFE4F1491F901EC56FE4FAD
:100C800004910023C1F0882319F0698359DF698139
:100C9000E02FF0E0EE0FFF1FE652FE4FA591B4915A
:100CA0009FB7F8948C91611103C01095812301C006
:100CB000812B8C939FBF0F90DF91CF911F910F914C
:100CC00008950895DBDEFDDFD2DAC0E0D0E0D2DAAD
:100CD0002097E9F30E940000FACF0895EE0FFF1F5E
:100CE0000590F491E02D19940790F691E02D199458
:040CF000F894FFCFA6
:100CF4000100000000000000A10175014A01520139
:040D04006501740110
:00000001FF
