:100000000C94A2010C94CA010C94CA010C94CA016C
:100010000C94CA010C94CA010C94CA010C940A28CD
:100020000C94CA010C94CA010C94CA010C942D239F
:100030000C94CA010C94CA010C94CA010C94CA0114
:100040000C94102A0C94CA010C94FF2D0C94312EA0
:100050000C94CA010C94CA010C94CA010C94CA01F4
:100060000C94DD260C94CA01640567026A026D02D5
:1000700070027302760279027C027F02820285029C
:1000800088028B028E029102940297029A029D02CC
:10009000A002A302A602A902AC02AF02B202B502FC
:1000A000B802BB02BE02C102C402C702CA02CD022C
:1000B000D002D302D602D902DC02DF02E202E5025C
:1000C000E802EB02EE02F102F402F702FA02FD028C
:1000D00000030303060309030C030F0312031503B4
:1000E00018031B031E032103240327032A032D03E4
:1000F00030033303360339033C033F034203450314
:1001000048034B034E035103540357035A035D0343
:1001100060036303660369036C036F037203750373
:1001200078037B037E038103840387038A038D03A3
:1001300090039303960399039C039F03A203A503D3
:10014000A803AB03AE03B103B403B703BA03BD0303
:10015000C003C303C603C903CC03CF03D203D50333
:10016000D803DB03DE03E103E403E703EA03ED0363
:10017000F003F303F603F903FC03FF030204050491
:1001800008040B040E041104140417041A041D04BB
:1001900020042304260429042C042F0432043504EB
:1001A00038043B043E044104440447044A044D041B
:1001B00050045304560459045C045F04620465044B
:1001C00068046B046E047104740477047A047D047B
:1001D00080048304860489048C048F0492049504AB
:1001E00098049B049E04A104A404A704AA04AD04DB
:1001F000B004B304B604B904BC04BF04C204C5040B
:10020000C804CB04CE04D104D404D704DA04DD043A
:10021000E004E304E604E904EC04EF04F204F5046A
:10022000F804FB04FE040105040507050A050D0595
:1002300010051305160519051C051F0522052505C2
:1002400028052B052E053105340537053A053D05F2
:1002500040054305460549054C054F055205550522
:1002600058055B055E0561051706190601060406BB
:1002700007060A060D06100613062B065D06300655
:1002800035063A065D063F06440649064E06530605
:100290005806F10AF60AFB0A000B050B0A0B0F0BB6
:1002A000140B190B1E0B3C0B490B560B630B700BFD
:1002B0007D0B8A0B970BA40BB10B89138E13931331
:1002C00098139D13A213A713AC13B113B613A42054
:1002D000A720AA20AD20B020B320B620B920BC2092
:1002E000BF20000000080002010000030407000016
:1002F00000000000000001020408102040800102FC
:10030000040810200102040810200404040404045A
:1003100004040202020202020303030303030000B7
:10032000000023002600290000000000250028000E
:100330002B0000000000240027002A006506FB2592
:10034000CE29612E11241FBECFEFD8E0DEBFCDBF76
:1003500012E0A0E0B1E0EAEEF7E602C005900D92EF
:10036000A832B107D9F727E0A8E2B2E001C01D9298
:10037000A732B207E1F713E0C4E4D3E004C0229748
:10038000FE010E94BF33CC33D107C9F70E94A52ECE
:100390000C94F3330C940000DC01ED91FC9101907E
:1003A000F081E02D099426E00C949D2DDC01ED9167
:1003B000FC910190F081E02D09943F924F925F9261
:1003C0006F927F928F929F92AF92BF92CF92DF9265
:1003D000EF92FF920F931F93CF93DF9300D000D043
:1003E000CDB7DEB7382E6A017B012801390160E202
:1003F00071EA87E090E0A70196010E949E334901CF
:100400005A01A7019601C301B2010E94383328EEB8
:1004100033E040E050E00E949E33C12CD12C7601A5
:10042000C216D306E406F506E4F461E0832D2983C1
:100430003A834B835C830E94D42BC4010E94B12A6F
:1004400060E0832D0E94D42BC4010E94B12A8FEF5B
:10045000C81AD80AE80AF80A5C814B813A812981D6
:10046000DFCF0F900F900F900F90DF91CF911F91E2
:100470000F91FF90EF90DF90CF90BF90AF909F9043
:100480008F907F906F905F904F903F90089589304C
:10049000910558F09C01295031092830310538F078
:1004A0004197089730F482E0089580E0089581E054
:1004B000089583E00895CF93DF938F3F910511F066
:1004C00008F004C3FC01EC5CFF4F0C94BD33C5EC99
:1004D000D5E0FCC2CEE9D5E0F9C2C7E7D5E0F6C267
:1004E000C2E5D5E0F3C2CEE2D5E0F0C2CBE0D5E084
:1004F000EDC2C8EED4E0EAC2C7ECD4E0E7C2C6EA77
:10050000D4E0E4C2C7E8D4E0E1C2C8E6D4E0DEC289
:10051000CAE4D4E0DBC2CDE2D4E0D8C2C0E1D4E08A
:10052000D5C2C5EFD3E0D2C2CAEDD3E0CFC2C0EC92
:10053000D3E0CCC2C6EAD3E0C9C2CDE8D3E0C6C29C
:10054000C5E7D3E0C3C2CDE5D3E0C0C2C7E4D3E082
:10055000BDC2C0E3D3E0BAC2CBE1D3E0B7C2C5E0CD
:10056000D3E0B4C2C1EFD2E0B1C2CDEDD2E0AEC2B1
:10057000C9ECD2E0ABC2C6EBD2E0A8C2C4EAD2E07A
:10058000A5C2C2E9D2E0A2C2C0E8D2E09FC2CFE6D3
:10059000D2E09CC2CFE5D2E099C2CFE4D2E096C2CD
:1005A000CFE3D2E093C2C0E3D2E090C2C1E2D2E096
:1005B0008DC2C2E1D2E08AC2C4E0D2E087C2C6EFF7
:1005C000D1E084C2C9EED1E081C2CCEDD1E07EC2DF
:1005D000CFECD1E07BC2C3ECD1E078C2C7EBD1E075
:1005E00075C2CBEAD1E072C2C0EAD1E06FC2C5E900
:1005F000D1E06CC2CAE8D1E069C2C0E8D1E066C20D
:10060000C6E7D1E063C2CCE6D1E060C2C2E6D1E089
:100610005DC2C9E5D1E05AC2CFE4D1E057C2C6E419
:10062000D1E054C2CEE3D1E051C2C5E3D1E04EC225
:10063000CDE2D1E04BC2C5E2D1E048C2CDE1D1E08C
:1006400045C2C6E1D1E042C2CEE0D1E03FC2C7E040
:10065000D1E03CC2C0E0D1E039C2C9EFD0E036C23F
:10066000C3EFD0E033C2CCEED0E030C2C6EED0E073
:100670002DC2C0EED0E02AC2CAEDD0E027C2C4ED40
:10068000D0E024C2CEECD0E021C2C9ECD0E01EC242
:10069000C4ECD0E01BC2CEEBD0E018C2C9EBD0E076
:1006A00015C2C4EBD0E012C2C0EBD0E00FC2CBEA5F
:1006B000D0E00CC2C6EAD0E009C2C2EAD0E006C26D
:1006C000CEE9D0E003C2C9E9D0E000C2C5E9D0E07C
:1006D000FDC1C1E9D0E0FAC1CEE8D0E0F7C1CAE877
:1006E000D0E0F4C1C6E8D0E0F1C1C3E8D0E0EEC18B
:1006F000CFE7D0E0EBC1CCE7D0E0E8C1C8E7D0E07D
:10070000E5C1C5E7D0E0E2C1C2E7D0E0DFC1CFE696
:10071000D0E0DCC1CCE6D0E0D9C1C9E6D0E0D6C19A
:10072000C6E6D0E0D3C1C4E6D0E0D0C1C1E6D0E097
:10073000CDC1CEE5D0E0CAC1CCE5D0E0C7C1CAE5A5
:10074000D0E0C4C1C7E5D0E0C1C1C5E5D0E0BEC1BD
:10075000C3E5D0E0BBC1C0E5D0E0B8C1CEE4D0E095
:10076000B5C1CCE4D0E0B2C1CAE4D0E0AFC1C8E4C6
:10077000D0E0ACC1C6E4D0E0A9C1C4E4D0E0A6C1D9
:10078000C3E4D0E0A3C1C1E4D0E0A0C1CFE3D0E096
:100790009DC1CDE3D0E09AC1CCE3D0E097C1CAE3DC
:1007A000D0E094C1C9E3D0E091C1C7E3D0E08EC1ED
:1007B000C6E3D0E08BC1C4E3D0E088C1C3E3D0E09E
:1007C00085C1C1E3D0E082C1C0E3D0E07FC1CFE208
:1007D000D0E07CC1CEE2D0E079C1CCE2D0E076C1FD
:1007E000CBE2D0E073C1CAE2D0E070C1C9E2D0E090
:1007F0006DC1C8E2D0E06AC1C7E2D0E067C1C6E21D
:10080000D0E064C1C5E2D0E061C1C4E2D0E05EC125
:10081000C3E2D0E05BC1C2E2D0E058C1C1E2D0E0A7
:1008200055C1C0E2D0E052C1CFE1D0E04FC1CEE12E
:10083000D0E04CC1CEE1D0E049C1CDE1D0E046C12D
:10084000CCE1D0E043C1CBE1D0E040C1CBE1D0E08E
:100850003DC1CAE1D0E03AC1C9E1D0E037C1C9E148
:10086000D0E034C1C8E1D0E031C1C7E1D0E02EC151
:10087000C7E1D0E02BC1C6E1D0E028C1C5E1D0E09E
:1008800025C1C5E1D0E022C1C4E1D0E01FC1C4E16F
:10089000D0E01CC1C3E1D0E019C1C3E1D0E016C172
:1008A000C2E1D0E013C1C2E1D0E010C1C1E1D0E0AB
:1008B0000DC1C1E1D0E00AC1C0E1D0E007C1C0E193
:1008C000D0E004C1C0E1D0E001C1CFE0D0E0FEC083
:1008D000CFE0D0E0FBC0CEE0D0E0F8C0CEE0D0E08A
:1008E000F5C0CEE0D0E0F2C0CDE0D0E0EFC0CDE08A
:1008F000D0E0ECC0CDE0D0E0E9C0CCE0D0E0E6C094
:10090000CCE0D0E0E3C0CCE0D0E0E0C0CBE0D0E091
:10091000DDC0CBE0D0E0DAC0CBE0D0E0D7C0CAE0A9
:10092000D0E0D4C0CAE0D0E0D1C0CAE0D0E0CEC0B0
:10093000CAE0D0E0CBC0C9E0D0E0C8C0C9E0D0E098
:10094000C5C0C9E0D0E0C2C0C9E0D0E0BFC0C8E0C7
:10095000D0E0BCC0C8E0D0E0B9C0C8E0D0E0B6C0CC
:10096000C8E0D0E0B3C0C7E0D0E0B0C0C7E0D0E09E
:10097000ADC0C7E0D0E0AAC0C7E0D0E0A7C0C7E0E4
:10098000D0E0A4C0C7E0D0E0A1C0C6E0D0E09EC0E7
:10099000C6E0D0E09BC0C6E0D0E098C0C6E0D0E0A2
:1009A00095C0C6E0D0E092C0C6E0D0E08FC0C5E000
:1009B000D0E08CC0C5E0D0E089C0C5E0D0E086C002
:1009C000C5E0D0E083C0C5E0D0E080C0C5E0D0E0A5
:1009D0007DC0C5E0D0E07AC0C4E0D0E077C0C4E01C
:1009E000D0E074C0C4E0D0E071C0C4E0D0E06EC01C
:1009F000C4E0D0E06BC0C4E0D0E068C0C4E0D0E0A8
:100A000065C0C4E0D0E062C0C4E0D0E05FC0C4E034
:100A1000D0E05CC0C3E0D0E059C0C3E0D0E056C035
:100A2000C3E0D0E053C0C3E0D0E050C0C3E0D0E0AA
:100A30004DC0C3E0D0E04AC0C3E0D0E047C0C3E04F
:100A4000D0E044C0C3E0D0E041C0C3E0D0E03EC04D
:100A5000C3E0D0E03BC0C3E0D0E038C0C2E0D0E0AB
:100A600035C0C2E0D0E032C0C2E0D0E02FC0C2E06A
:100A7000D0E02CC0C2E0D0E029C0C2E0D0E026C067
:100A8000C2E0D0E023C0C2E0D0E020C0C2E0D0E0AD
:100A90001DC0C2E0D0E01AC0C2E0D0E017C0C2E082
:100AA000D0E014C0C2E0D0E011C0C2E0D0E00EC07F
:100AB000C2E0D0E00BC0C2E0D0E008C0C2E0D0E0AD
:100AC00005C0C2E0D0E002C0CDEED5E06DE071E03F
:100AD00088E292E00E94F22E4AE050E0BE0188E2F5
:100AE00092E00E94C42F6FE071E088E292E0DF9113
:100AF000CF910C94F22E63E171E08AE896E00E94B7
:100B0000F22E6EE170E081EE94E00E94212590E0EB
:100B10009093B4048093B3046FE170E081EE94E0AD
:100B20000E94212590E09093B2048093B10460E28A
:100B300070E081EE94E00E94212590E09093B00453
:100B40008093AF0461E270E081EE94E00E94212581
:100B500090E09093AE048093AD0462E270E081EE89
:100B600094E00E94212590E09093AC048093AB0424
:100B700063E270E081EE94E00E94212590E0909382
:100B8000AA048093A9046091B3047091B4048AE824
:100B900096E00E94D6016091B1047091B2048AE897
:100BA00096E00E94D6016091AF047091B0048AE88B
:100BB00096E00E94D6016091AD047091AE048AE87F
:100BC00096E00E94D6016091AB047091AC048AE873
:100BD00096E00E94D6016091A9047091AA048AE867
:100BE00096E00E94D6016AE271E08AE896E00C94F1
:100BF0000F2F89309105D0F4FC01EC5CFE4F0C9472
:100C0000BD3380E090E1089580E090E2089580E0B7
:100C100090E3089580E090E4089580E090E50895E1
:100C200080E090E6089580E090E7089508958CE8CC
:100C300001C080E090E0089564E870E081EE94E007
:100C40000E94212590E08C309105B8F5FC01E35C11
:100C5000FE4F0C94BD334CE251E060E070E031C0D7
:100C600040EB54E060E070E02CC040E659E060E00A
:100C700070E027C040EC52E160E070E022C040E448
:100C800058E360E070E01DC040E05BE460E070E0CD
:100C900018C040E850E760E070E013C040E056E95B
:100CA00060E070E00EC040E051EE60E070E009C02E
:100CB00040E052EC61E070E004C040E855E260E0E2
:100CC00070E08AE896E00C94D301CF93DF9300D0D4
:100CD000CDB7DEB78FE492E00E94E9238CE492E086
:100CE0000E94E92389E492E00E94E92386E492E0ED
:100CF0000E94E92383E492E00E94E92380E492E0E9
:100D00000E94E9238DE392E00E94E9238AE392E0C6
:100D10000E94E92387E392E00E94E92384E392E0C2
:100D20000E94E92363E870E081EE94E00E942125AF
:100D3000282F62E870E081EE94E02A830E9421254A
:100D4000482F67E270E081EE94E049830E942125FC
:100D50002A814981682F88E292E00F900F90DF91FD
:100D6000CF910C94A9280F931F93CF93DF931F92D9
:100D7000CDB7DEB7162F072FBC0182EE94E0498372
:100D80000E94E325602F82EE94E00E948025612F6F
:100D900082EE94E00E9480254981642F70E082EE0B
:100DA00094E00E94CC0182EE94E00F90DF91CF910D
:100DB0001F910F910C94F8250F931F93CF93DF93FE
:100DC000EC01162F072FBC0182EE94E00E94E32570
:100DD000602F82EE94E00E948025612F82EE94E0E5
:100DE0000E94802582EE94E00E94F82541E050E0C8
:100DF000BE0182EE94E00E94D62582EE94E00E942D
:100E00002825892B29F082EE94E00E94302501C02C
:100E10008FEFDF91CF911F910F910895CF93DF93C3
:100E200000D0CDB7DEB7009741F481EE94E00F908B
:100E30000F90DF91CF910C94212569837A830E94D2
:100E4000470290E069817A81805B9F4F0F900F90FD
:100E5000DF91CF910C94DC06CF92DF92EF92FF925C
:100E6000BC01882777FD8095982F0E941D3229E6C6
:100E700030E946E05FEB0E94D13223EF3DE248EEDD
:100E800052E40E941A316B017C0120E030E0A9019C
:100E90000E94CD3287FD06C06DE071E088E292E0ED
:100EA0000E94F22E22E030E0B701A60188E292E033
:100EB0000E94CF306FED88E292E00E941C2963E42B
:100EC00088E292E0FF90EF90DF90CF900C94F42EA8
:100ED0000F931F93CF930E945A2A609397047093A5
:100EE00098048093990490939A04C1E08AE896E06C
:100EF0000E94B82C2091B704892B11F5211120C034
:100F00000E945A2A609393047093940480939504EA
:100F1000909396040091970410919804209199045D
:100F200030919A04DC01CB01801B910BA20BB30B17
:100F300085369105A105B105C8F2C093B704D6CF97
:100F4000211107C08AE896E0CF911F910F910C9470
:100F5000D32C8FEF9FEFCF911F910F9108952F9278
:100F60003F924F925F926F927F928F929F92AF9239
:100F7000BF92CF92DF92EF92FF920F931F93CF9386
:100F8000DF9300D000D0CDB7DEB702E512E0BEE7B8
:100F9000EB2EB4E0FB2EC12CD12CC6010E94F9052A
:100FA000F701819391937F01F801119211921192AF
:100FB00011928F01FFEFCF1ADF0A21E2C216D1048E
:100FC00061F78AE896E00E94B82C181619064CF4CE
:100FD0008AE896E00E94D32C9093A2048093A10407
:100FE000F0CFF7E06F2E88248A94912C8AE896E05F
:100FF0000E94B82CE1E0E983181619060CF019825A
:1010000056E7A52E52E0B52E62E5E62E62E0F62EFA
:101010007EE7C72E74E0D72E1C821B82EAE07E2E6C
:101020006B817C81685D7F4F81EE94E00E94212579
:10103000813011F00C941613F60180819181909308
:10104000910480939004EAE4F4E080E090E0D5011C
:10105000A80FB91F2D913C912193319302968433AF
:101060009105A9F78AE896E00E94B82C181619068F
:1010700014F4F1E0F983F70120803180428053803D
:10108000211431044104510411F00C94F4126091C4
:101090009004709191048B819C810E940E07823193
:1010A00009F4D9C408F071C0883009F47DC2F0F4A5
:1010B0006091900470919104833009F4DCC148F48C
:1010C000813009F48BC108F0B5C16F5F7F4F0C947C
:1010D000A112853009F41CC208F4F5C1863009F468
:1010E00031C2873009F444C20C9400138D3009F4E6
:1010F000CAC388F460919004709191048A3009F415
:1011000048C308F4A0C28B3009F451C38C3009F4F1
:1011100084C30C9400138F3009F429C408F4EDC380
:10112000803109F45EC4813111F00C9400130E94E7
:101130005A2A1B012C0160919004709191046F5FF9
:101140007F4F8B819C810E940E07182F6091900425
:10115000709191046E5F7F4F8B819C810E940E077E
:10116000212F30E0322F2227280F311DC901AA2755
:1011700097FDA095BA2F820D931DA41DB51DF701F3
:1011800080839183A283B383FAC2813209F471C64A
:1011900008F0C5C0893109F4E6C408F06AC0863198
:1011A00009F48BC470F4853111F00C94001388E2BB
:1011B00092E00E94252980919004909191040196DB
:1011C000E3C2873109F496C4883111F00C940013FE
:1011D00060919004709191046D5F7F4F8B819C8131
:1011E0000E940E07482F60919004709191046E5FE9
:1011F0007F4F8B819C814A830E940E074A81682F12
:1012000088E292E00E94332967E271E088E292E08E
:101210000E94F22E60919004709191046D5F7F4F57
:101220008B819C810E940E07482F609190047091E1
:1012300091046E5F7F4F8B819C814A830E940E07D1
:101240004A81682F88E292E00E94332960919004DD
:10125000709191046F5F7F4F8B819C810E940E077C
:10126000E82FF0E0EE0FFF1FE853FC4F6081718123
:10127000C4C460919004709191048B3109F428C525
:1012800008F4C6C48F3109F4A1C5803211F00C9462
:1012900000136D5F7F4F8B819C810E940E07482F4A
:1012A00060919004709191046E5F7F4F8B819C815F
:1012B0004A830E940E074A81682F88E292E00E94CA
:1012C000332961E271E088E292E00E94F22E60919F
:1012D0009004709191046D5F7F4F8B819C810E947F
:1012E0000E07482F60919004709191046E5F7F4FBC
:1012F0008B819C814A830E940E074A81682F88E275
:1013000092E00E94332960919004709191046F5F84
:101310007F4F8B819C810E940E0790E0A3C586328F
:1013200009F4D3C788F460919004709191048332DA
:1013300009F43CC608F4EEC5843209F487C6853248
:1013400009F4F8C60C940013893211F40C9433128A
:1013500068F5883211F00C9400136091900470913C
:1013600091046F5F7F4F8B819C810E940E0790E0FC
:101370009093B4048093B3046091900470919104AD
:101380006E5F7F4F8B819C810E940E0790E090934F
:10139000B2048093B1046091B3047091B40482EEFE
:1013A00094E00E94E32511E00C9402128A3211F4B9
:1013B0000C94A6128F3F11F00C9400136BE271E0B5
:1013C0008AE896E00E94F22E4AE050E06B817C8130
:1013D0008AE896E00E94CC2F0C9400136F5F7F4F39
:1013E0008B819C810E940E07082F60919004709160
:1013F00091046E5F7F4F8B819C810E940E07182F96
:1014000060919004709191046D5F7F4F8B819C81FE
:101410000E940E07E02FF0E0EE0FFF1FE853FC4F95
:10142000212F30E0322F2227280F311D31832083D6
:101430000C94EE126F5F7F4F8B819C810E940E0790
:10144000182F60919004709191046F5F7F4F8B8192
:101450009C810E940E07E12FF0E0EE0FFF1FE85382
:10146000FC4FA82FB0E0AA0FBB1FA853BC4F8D9113
:101470009C91019620C06F5F7F4F8B819C810E9461
:101480000E07182F60919004709191046F5F7F4F49
:101490008B819C810E940E07E12FF0E0EE0FFF1F71
:1014A000E853FC4FA82FB0E0AA0FBB1FA853BC4FB6
:1014B0008D919C910197918380838091900490916C
:1014C0009104029661C16E5F7F4F8B819C810E9467
:1014D0000E07182F60919004709191046F5F7F4FF9
:1014E0008B819C810E940E070E94F62AE12FF0E07A
:1014F000EE0FFF1FE853FC4F9C0197FF02C02D5FCA
:101500003F4F35952795359527953183208337C1F2
:101510006E5F7F4F8B819C810E940E07E82FF0E069
:10152000EE0FFF1FE853FC4F008111816091900482
:10153000709191046F5F7F4F8B819C810E940E0799
:10154000B80113C06E5F7F4F8B819C810E940E0794
:10155000182F60919004709191046F5F7F4F8B8181
:101560009C810E940E07612F70E00E94132B07C11F
:101570006E5F7F4F8B819C810E940E07609190046B
:10158000709191046F5F7F4F811106C08B819C81A8
:101590000E940E0760E005C08B819C810E940E07AF
:1015A00061E00E94D42BEBC0609190047091910493
:1015B0006F5F7F4F8B819C810E940E0790E0FC0142
:1015C0003497EA30F10508F0DAC0E75BFE4F60912E
:1015D0009004709191046E5F7F4F8B819C810C947D
:1015E000BD330E940E07682F70E050C00E940E07A6
:1015F000682F70E058C00E940E07682F70E060C02E
:101600000E940E07682F70E068C00E940E07682FC6
:1016100070E070C00E940E07682F70E078C00E94D2
:101620000E07682F70E080C00E940E07682F70E0E0
:1016300088C00E940E07682F70E090C00E940E07BD
:10164000682F70E098C06F5F7F4F8B819C810E94F4
:101650000E0790E0FC013497EA30F10508F08FC0E6
:10166000ED5AFE4F60919004709191046E5F7F4F30
:101670008B819C810C94BD330E940E07E82FF0E013
:10168000EE0FFF1FE853FC4F608171818FE492E001
:1016900074C00E940E07E82FF0E0EE0FFF1FE85322
:1016A000FC4F608171818CE492E067C00E940E075C
:1016B000E82FF0E0EE0FFF1FE853FC4F60817181CF
:1016C00089E492E05AC00E940E07E82FF0E0EE0F86
:1016D000FF1FE853FC4F6081718186E492E04DC0AA
:1016E0000E940E07E82FF0E0EE0FFF1FE853FC4FBB
:1016F0006081718183E492E040C00E940E07E82F70
:10170000F0E0EE0FFF1FE853FC4F6081718180E431
:1017100092E033C00E940E07E82FF0E0EE0FFF1FAB
:10172000E853FC4F608171818DE392E026C00E94F6
:101730000E07E82FF0E0EE0FFF1FE853FC4F60812B
:1017400071818AE392E019C00E940E07E82FF0E051
:10175000EE0FFF1FE853FC4F6081718187E392E039
:101760000CC00E940E07E82FF0E0EE0FFF1FE853B9
:10177000FC4F6081718184E392E00E94BC248091DF
:101780009004909191040396909391048093900417
:1017900037C76F5F7F4F8B819C810E940E070E942D
:1017A0000A2C8C019093A2048093A1048EC66F5FD3
:1017B0007F4F8B819C810E940E07E82FF0E0EE0F97
:1017C000FF1FE853FC4F008111811093A204009386
:1017D000A10460919004709191046E5F7F4F8B81A2
:1017E0009C810E940E07582E609190047091910484
:1017F0006D5F7F4F8B819C810E940E07252D30E00D
:10180000322F2227280F311D60919004709191048E
:101810000217130709F056C533C56F5F7F4F8B81E1
:101820009C810E940E07E82FF0E0EE0FFF1FE853A7
:10183000FC4F008111811093A2040093A1046091D8
:101840009004709191046E5F7F4F8B819C810E9408
:101850000E07582E60919004709191046D5F7F4F38
:101860008B819C810E940E07252D30E0322F22278C
:10187000280F311D60919004709191040217130795
:101880000CF020C5FDC460919004709191046F5FCD
:101890007F4F8B819C810E940E07E82FF0E0EE0FB6
:1018A000FF1FE853FC4F008111811093A2040093A5
:1018B000A10460919004709191046E5F7F4F8B81C1
:1018C0009C810E940E07582E6091900470919104A3
:1018D0006D5F7F4F8B819C810E940E07252D30E02C
:1018E000322F2227280F311D6091900470919104AE
:1018F000201731070CF0E6C4C3C4609190047091C6
:1019000091046F5F7F4F8B819C810E940E07E82FAF
:10191000F0E0EE0FFF1FE853FC4F008111811093A0
:10192000A2040093A10460919004709191046E5FF1
:101930007F4F8B819C810E940E07582E60919004EE
:10194000709191046D5F7F4F8B819C810E940E0787
:10195000252D30E0322F2227280F311D6091900471
:1019600070919104201731070CF4ACC489C46091C4
:101970009004709191046F5F7F4F8B819C810E94D6
:101980000E07E82FF0E0EE0FFF1FE853FC4F008139
:1019900011811093A2040093A104609190047091AE
:1019A00091046E5F7F4F8B819C810E940E07582EA1
:1019B00060919004709191046D5F7F4F8B819C8149
:1019C0000E940E07252D30E0322F2227280F311DCF
:1019D0006091900470919104021713070CF472C483
:1019E0004FC460919004709191046F5F7F4F8B8121
:1019F0009C810E940E07E82FF0E0EE0FFF1FE853D6
:101A0000FC4F008111811093A2040093A104609106
:101A10009004709191046E5F7F4F8B819C810E9436
:101A20000E07582E60919004709191046D5F7F4F66
:101A30008B819C810E940E07252D30E0322F2227BA
:101A4000280F311D609190047091910402171307C3
:101A500009F016C437C460919004709191046F5FCF
:101A60007F4F8B819C810E940E07082F609190040C
:101A7000709191046E5F7F4F8B819C810E940E0755
:101A800010E0102F0027080F111D1093B6040093CB
:101A9000B5048B819C81892B19F405571F4F08C011
:101AA0008B819C810E94F90501501109080F191FB3
:101AB0001093910400939004A3C5609190047091D9
:101AC00091046E5F7F4F8B819C810E940E07482F8F
:101AD00060919004709191046F5F7F4F8B819C8126
:101AE0004A830E940E074A81682F88E292E00E9492
:101AF000332945CE81E090E09093B0048093AF0409
:101B00006091AF047091B004809190049091910421
:101B1000680F791F8B819C810E940E07282F30E06F
:101B20003093B2042093B1042C37310529F0682F8B
:101B300088E292E00E941C298091AF049091B00449
:101B400001969093B0048093AF042091B10430913A
:101B5000B2042C373105A1F6209190043091910404
:101B6000280F391FE7C460919004709191046D5F54
:101B70007F4F8B819C810E940E07482F60919004BB
:101B8000709191046E5F7F4F8B819C814A830E948C
:101B90000E074A81682F88E292E00E94332967E2AB
:101BA00071E088E292E00E94F22E609190047091C0
:101BB00091046D5F7F4F8B819C810E940E07482F9F
:101BC00060919004709191046E5F7F4F8B819C8136
:101BD0004A830E940E074A81682F88E292E00E94A1
:101BE000332960919004709191046F5F7F4F8B81D6
:101BF0009C810E940E07682F70E07093A20460938E
:101C0000A1044AE050E088E292E00E94C42FE6C4BA
:101C10006F5F7F4F8B819C810E940E07282F30E0E1
:101C20003093A2042093A104869D602D112421E00D
:101C30004AEB54E080E796E00E94D2298091BA04F2
:101C4000672D0E944833805D682F88E292E00E94F1
:101C50001C298091BA04672D0E944833905D692F3A
:101C600088E292E00E941C296FE288E292E00E94E2
:101C70001C296091A104669D602D11246F5F21E0F5
:101C80004AEB54E080E796E00E94D2298091BA04A2
:101C9000672D0E944833805D682F88E292E00E94A1
:101CA0001C298091BA04672D0E944833905D692FEA
:101CB00088E292E00E941C296FE288E292E00E9492
:101CC0001C296091A104669D602D11246E5F60C087
:101CD0006F5F7F4F8B819C810E940E07282F30E021
:101CE0003093A2042093A104869D602D11246D5F82
:101CF00021E04AEB54E080E796E00E94D2298091EF
:101D0000BA04672D0E944833805D682F88E292E014
:101D10000E941C298091BA04672D0E944833905D6F
:101D2000692F88E292E00E941C296AE388E292E02F
:101D30000E941C296091A104669D602D11246C5F96
:101D400021E04AEB54E080E796E00E94D22980919E
:101D5000BA04672D0E944833805D682F88E292E0C4
:101D60000E941C298091BA04672D0E944833905D1F
:101D7000692F88E292E00E941C296AE388E292E0DF
:101D80000E941C296091A104669D602D11246B5F47
:101D900021E04AEB54E080E796E00E94D22980914E
:101DA000BA04672D0E944833805D682F88E292E074
:101DB0000E941C298091BA04672D0E944833905DCF
:101DC000692F88E292E00E941C2977CB6D5F7F4FDC
:101DD0008B819C810E940E07482F60919004709126
:101DE00091046E5F7F4F8B819C814A830E940E0716
:101DF0004A81682F88E292E00E94332961E271E013
:101E000088E292E00E94F22E609190047091910419
:101E10006D5F7F4F8B819C810E940E07482F6091E0
:101E20009004709191046E5F7F4F8B819C814A83F7
:101E30000E940E074A81682F88E292E00E943329AF
:101E400060919004709191046F5F7F4F8B819C81B2
:101E50000E940E07E82FF0E0EE0FFF1FE853FC4F43
:101E6000808191819093A2048093A1040E942C0709
:101E7000B5C360919004709191046D5F7F4F8B8129
:101E80009C810E940E07482F6091900470919104EC
:101E90006E5F7F4F8B819C814A830E940E074A812F
:101EA000682F88E292E00E94332961E271E088E2C3
:101EB00092E00E94F22E60919004709191046D5F07
:101EC0007F4F8B819C810E940E07482F6091900468
:101ED000709191046E5F7F4F8B819C814A830E9439
:101EE0000E074A81682F88E292E00E9433296091B0
:101EF0009004709191046F5F7F4F8B819C810E9451
:101F00000E07E82FF0E0EE0FFF1FE853FC4F808133
:101F1000918145C06D5F7F4F8B819C810E940E0730
:101F2000482F60919004709191046E5F7F4F8B8178
:101F30009C814A830E940E074A81682F88E292E0C2
:101F40000E94332961E271E088E292E00E94F22E61
:101F500060919004709191046D5F7F4F8B819C81A3
:101F60000E940E07482F60919004709191046E5F5B
:101F70007F4F8B819C814A830E940E074A81682F84
:101F800088E292E00E94332960919004709191045C
:101F90006F5F7F4F8B819C810E940E0790E0909332
:101FA000A2048093A1040E945B0218C36C5F7F4F60
:101FB0008B819C810E940E07282E60919004709165
:101FC00091046B5F7F4F8B819C810E940E07582E7E
:101FD00060919004709191046E5F7F4F8B819C8122
:101FE0000E940E07482F60919004709191046D5FDC
:101FF0007F4F8B819C814A830E940E07482E6091FF
:102000009004709191046F5F7F4F8B819C810E943F
:102010000E07312C322C2224250C311C8101222761
:1020200017FD2095322F4A8150E0542F4427440D4C
:10203000511D662757FD6095762F90E00E94DD01C7
:10204000809190049091910406969ECB6F5F7F4F94
:102050008B819C810E940E0790E09093B404809342
:10206000B30460919004709191046E5F7F4F8B81F7
:102070009C810E940E0790E09093B2048093B1047B
:1020800060919004709191046D5F7F4F8B819C8172
:102090000E940E0790E09093B0048093AF0461E03B
:1020A0008091B3040E94D42B88EE93E00E94B12A61
:1020B00060E08091B3040E94D42B9092A20480929D
:1020C000A10420E432E44FE050E061E08091B104EB
:1020D0000E94332C96958795779567950E941B32C1
:1020E0002DEC3CEC48EE51E40E94823120E030E0DF
:1020F00040E050E40E941A310E94EA316F3F7105BE
:1021000009F02CF47093A2046093A10404C090928F
:10211000A2048092A104E091AF04F091B004EE0F0C
:10212000FF1FE853FC4F8091A1049091A20491837A
:10213000808354C26F5F7F4F8B819C810E940E070A
:10214000E82FF0E0EE0FFF1FE853FC4F80819181F4
:102150009093B4048093B3046091900470919104BF
:102160006E5F7F4F8B819C810E940E07E82FF0E00D
:10217000EE0FFF1FE853FC4F808191819093B204D2
:102180008093B10460919004709191046D5F7F4FD2
:102190008B819C810E940E07282F30E03093B00481
:1021A0002093AF041092A2041092A1048D3379F011
:1021B00028F48132B9F18C3349F158C0893609F4D9
:1021C00049C08337D9F18E3309F050C013C0209134
:1021D000B3043091B4048091B1049091B2042817F3
:1021E000390709F043C081E090E09093A204809306
:1021F000A1043CC02091B3043091B4048091B10497
:102200009091B2048217930774F330C02091B30405
:102210003091B4048091B1049091B2042817390729
:1022200014F324C02091B3043091B4048091B1041C
:102230009091B20428173907B1F618C02091B30461
:102240003091B4048091B1049091B20428173907F9
:1022500054F60CC02091B3043091B4048091B104C1
:102260009091B204821793070CF0BDCF8091A10426
:102270009091A2046091900470919104019711F5DE
:102280006C5F7F4F8B819C810E940E07182F60919D
:102290009004709191046B5F7F4F8B819C810E94B1
:1022A0000E07412F50E0542F4427480F511D5093E3
:1022B000B6044093B50420919004309191042B5FB3
:1022C0003F4F36C16A5F7F4F3CC16091900470916F
:1022D00091046E5F7F4F8B819C810E940E07E82FD7
:1022E000F0E0EE0FFF1FE853FC4F80819181909347
:1022F000B4048093B30460919004709191046C5F76
:102300007F4F8B819C810E940E07E82FF0E0EE0F3B
:10231000FF1FE853FC4F808191819093B20480931A
:10232000B10460919004709191046D5F7F4F8B8137
:102330009C810E940E07282F30E03093B004209338
:10234000AF041092A2041092A1048B3231F190F4E8
:102350008A32E1F54091B3045091B4042091B10464
:102360003091B204429FC001439F900D529F900D47
:10237000112428C08D32E1F08F3241F58091B304F1
:102380009091B4046091B1047091B2040E946833DA
:102390007093A2046093A10419C08091B30490913A
:1023A000B4042091B1043091B204820F931F0AC08B
:1023B0008091B3049091B4042091B1043091B2049F
:1023C000821B930B9093A2048093A10460919004CC
:1023D000709191046F5F7F4F8B819C810E940E07EB
:1023E000E82FF0E0EE0FFF1FE853FC4F8091A104AF
:1023F0009091A204918380838091900490919104A4
:102400000596C2C9812F90E02091B1043091B204A9
:1024100028173907C4F060919004709191046E5FA1
:102420007F4F680F791F8B819C810E940E07682F58
:1024300070E07093B0046093AF0482EE94E00E9469
:10244000CC011F5FDFCF82EE94E00E94F8258091DF
:1024500090049091910403962091B1043091B204BC
:10246000820F931F91C960919004709191046F5FE6
:102470007F4F8B819C810E940E07682F70E07093C4
:10248000B4046093B30441E050E082EE94E00E9413
:10249000D62561E070E080E090E00E94892A82EE1B
:1024A00094E00E9430259093A2048093A10461E0FF
:1024B00070E080E090E00E94892A82EE94E00E9421
:1024C000F8250091A1041091A204609190047091EC
:1024D00091046E5F7F4F8B819C810E940E0790E07C
:1024E00060919004709191040817190741F56D5F90
:1024F0007F4F8B819C810E940E07182F6091900462
:10250000709191046C5F7F4F8B819C810E940E07BC
:10251000412F50E0542F4427480F511D5093B604CB
:102520004093B50420919004309191042C5F3F4F6B
:10253000240F351F309391042093900461C06B5F8A
:102540007F4F70939104609390045AC060919004FF
:10255000709191046F5F7F4F8B819C810E940E0769
:1025600090E09093B4048093B304609190047091D0
:1025700091046E5F7F4F8B819C810E940E0790E0DB
:102580009093B2048093B1046091B3047091B40449
:1025900082EE94E00E94E3256091B1047091B20450
:1025A00082EE94E00E94CC016091900470919104BD
:1025B0006D5F7F4F8B819C810E940E07E82FF0E0BA
:1025C000EE0FFF1FE853FC4F6081718182EE94E0B3
:1025D0000E94CC0182EE94E00E94F8258091900444
:1025E000909191040496D0C80E945A2A2616370664
:1025F0004806590628F4F7011082118212821382CC
:102600008091900490919104F60191838083EAE493
:10261000F4E080E090E021913191D501A80FB91F3D
:102620002D933C93029684339105A9F78B819C816D
:1026300001969C838B8394E3A90EB11CE2E0CE0E3D
:10264000D11CF4E0EF0EF11C8B819C81819711F07D
:102650000C9410089981992311F40C94F6070F90AB
:102660000F900F900F90DF91CF911F910F91FF90DE
:10267000EF90DF90CF90BF90AF909F908F907F9022
:102680006F905F904F903F902F900895CF93DF937E
:1026900040E855E260E070E08AE896E00E94D301ED
:1026A00082EE94E00E94BF250E947B05C0E0D0E04E
:1026B000BE0181EE94E00E942125823091F060F409
:1026C000813009F059C061E08C2F0E949B2B60E0A3
:1026D0008C2F0E94D42B50C0843041F0853081F083
:1026E0004BC060E08C2F0E949B2B46C061E08C2F7A
:1026F0000E949B2B60E070E08C2F0E94132B3CC04B
:10270000FE013497EA30F105B8F5E35AFE4F0C9418
:10271000BD3364E070E08FE492E02CC065E070E0CF
:102720008CE492E027C066E070E089E492E022C089
:1027300067E070E086E492E01DC068E070E083E44A
:1027400092E018C069E070E080E492E013C06AE0B3
:1027500070E08DE392E00EC06BE070E08AE392E0FF
:1027600009C06CE070E087E392E004C06DE070E0C7
:1027700084E392E00E9483242196C431D10509F0BC
:1027800097CF1092B70466E270E081EE94E00E9469
:1027900021258130D1F488E292E00E94CC2988E2A0
:1027A00092E00E94D2286FE371E088E292E00E94FA
:1027B000F22E41E060E088E292E00E9433296CE46E
:1027C00071E088E292E00E94F22E65E270E081EE14
:1027D00094E00E942125813021F4DF91CF910C9467
:1027E000AF07DF91CF9108958F929F92AF92BF92E2
:1027F000CF92DF92EF92FF920F931F93CF93DF93CD
:1028000000D01F92CDB7DEB78091B704882361F066
:102810008AE896E00E94162D6CE571E08AE896E061
:102820000E940F2F1092B7048AE896E00E94B82CFD
:102830001816190614F00C941D238AE896E00E94DD
:10284000D32C9093B9048093B8048A35910531F460
:102850008AE896E00E94162D0E9446138091B804E3
:102860009091B9048134910509F040C00E94680735
:10287000C09790939E0480939D040E9468079C01DA
:10288000205331093093A00420939F048091B70412
:1028900081112CC040919D0450919E046AE0649F78
:1028A000C001659F900D1124820F931F9093B60471
:1028B0008093B5040E94F62A97FD03969595879517
:1028C000959587959093A2048093A10465E671E0A5
:1028D0008AE896E00E94F22E6091A1047091A20411
:1028E0004AE050E08AE896E00E94CC2F8091B8043C
:1028F0009091B90481369105D1F50E946807C0977F
:1029000090939E0480939D040E9468079C0120532D
:1029100031093093A00420939F048091B704811162
:1029200026C040919D0450919E046AE0649FC001BE
:10293000659F900D1124820F931F9093B60480938E
:10294000B5040E94F62A9093A2048093A10465E640
:1029500071E08AE896E00E94F22E6091A1047091E5
:10296000A2044AE050E08AE896E00E94CC2F8091D1
:10297000B8049091B9048135910509F08DC00E9489
:102980006807C09790939E0480939D040E946807F7
:10299000C0979093A00480939F040E946807C097FB
:1029A0009093B2048093B1040E946807C0979093FB
:1029B000B0048093AF048091B70481116DC0209161
:1029C0009D0430919E041AE0129FC001139F900D48
:1029D000112420919F043091A004820F931F9093A3
:1029E000B6048093B50461E00E94D42B88EE93E096
:1029F0000E94B12A60E08091B5040E94D42B2091FE
:102A0000B1043091B204129FC001139F900D1124A4
:102A10002091AF043091B004820F931F9093B604BD
:102A20008093B50420E432E44FE050E061E00E947E
:102A3000332C96958795779567950E941B322DECE0
:102A40003CEC48EE51E40E94823120E030E040E06E
:102A500050E40E941A310E94EA316F3F710509F07B
:102A60002CF47093A2046093A10406C08FEF90E051
:102A70009093A2048093A10465E671E08AE896E051
:102A80000E94F22E6091A1047091A2044AE050E0ED
:102A90008AE896E00E94CC2F8091B8049091B90406
:102AA0008234910509F045C00E946807482F809341
:102AB0009F049093A0048091B70481113AC0809143
:102AC00092046091900470919104811105C081EE8F
:102AD00094E00E9424250EC090E049836A837B83A2
:102AE0000E94470290E049816A817B81805B9F4F11
:102AF0000E94B30665E070E080E090E00E94892AC1
:102B00008091900490919104019690939104809308
:102B100090046CE671E08AE896E00E94F22E6091E3
:102B20009F047091A0044AE050E08AE896E00E9479
:102B3000CC2F8091B8049091B9048C34910509F0A0
:102B400088C30E9468079093B4048093B3042091D3
:102B5000B704211166C38334910521F488E292E021
:102B60000E9425298091B3049091B4048335910586
:102B700009F072C00E946807C0979093B2048093D6
:102B8000B1040E946807C0979093B0048093AF048B
:102B90000E946807C0979093AE048093AD040E9492
:102BA0006807C0979093AC048093AB040E946807B9
:102BB000C0979093AA048093A9040E946807C097C5
:102BC0009093A8048093A7040E946807C0979093ED
:102BD000A6048093A5048091B1049091B20401975A
:102BE000A1F58091B704811130C041E066E270E048
:102BF00081EE94E00E9424258091AF044091AD04C1
:102C00002AE0829F400D112462E870E081EE94E09A
:102C10000E9424254091AB0463E870E081EE94E0CB
:102C20000E9424259091A9048091A704880F482F21
:102C3000440F440F480F34E6939F400D11248091B8
:102C4000A504480F67E270E003C040E066E270E070
:102C500081EE94E00E9424258091B3049091B40405
:102C60008734910591F50E946807C0979093B2044C
:102C70008093B1040E946807C0979093B00480933A
:102C8000AF040E946807C0979093AE048093AD0490
:102C90002091B1043091B2044AE0429FB001439FB9
:102CA000700D11242091AF043091B004620F731F96
:102CB0007093A2046093A1042091B704211105C070
:102CC000482F88E292E00E9433298091B3049091CA
:102CD000B4048434910509F07DC00E946807C09750
:102CE0009093B2048093B1042091B704211172C073
:102CF00007E0809F602D112421E04AEB54E080E73B
:102D000096E00E94D2298091BA041AE0612F0E94B5
:102D10004833805D682F88E292E00E941C298091F0
:102D2000BA04612F0E944833905D692F88E292E0D7
:102D30000E941C296FE288E292E00E941C296091A7
:102D4000B104609F602D11246F5F21E04AEB54E0D5
:102D500080E796E00E94D2298091BA04612F0E94F8
:102D60004833805D682F88E292E00E941C298091A0
:102D7000BA04612F0E944833905D692F88E292E087
:102D80000E941C296FE288E292E00E941C29609157
:102D9000B104609F602D11246E5F21E04AEB54E086
:102DA00080E796E00E94D2298091BA04612F0E94A8
:102DB0004833805D682F88E292E00E941C29809150
:102DC000BA04612F0E944833905D692F88E292E037
:102DD0000E941C298091B3049091B4048834910519
:102DE00009F07EC00E946807C0979093B204809358
:102DF000B1042091B704211173C007E0809F602DBA
:102E000011246D5F21E04AEB54E080E796E00E94D8
:102E1000D2298091BA041AE0612F0E944833805D64
:102E2000682F88E292E00E941C298091BA04612FE9
:102E30000E944833905D692F88E292E00E941C292D
:102E40006AE388E292E00E941C296091B104609FCD
:102E5000602D11246C5F21E04AEB54E080E796E09E
:102E60000E94D2298091BA04612F0E944833805D6C
:102E7000682F88E292E00E941C298091BA04612F99
:102E80000E944833905D692F88E292E00E941C29DD
:102E90006AE388E292E00E941C296091B104609F7D
:102EA000602D11246B5F21E04AEB54E080E796E04F
:102EB0000E94D2298091BA04612F0E944833805D1C
:102EC000682F88E292E00E941C298091BA04612F49
:102ED0000E944833905D692F88E292E00E941C298D
:102EE0008091B3049091B40487359105E1F080910D
:102EF000B3049091B4048635910509F098C01EC0C2
:102F00008C37910529F0682F88E292E00E941C29F5
:102F10008091B1049091B2048C37910541F3809176
:102F2000B7048111E4CF0E9468079093B2048093A4
:102F3000B1042091B7042111EBCFE2CF0E946807C2
:102F4000C09790939C0480939B040E946807C0974D
:102F500090939E0480939D040E946807C09790936D
:102F6000A00480939F040E946807C0979093B004C8
:102F70008093AF040E946807C0979093AE0480933B
:102F8000AD040E946807C0979093AC048093AB0493
:102F900040919B0450919C0464E6649F9001659F5E
:102FA000300D112460919D0470919E04EAE0E69F2B
:102FB000A001E79F500D1124240F351F40919F045D
:102FC0005091A004240F351F3093A2042093A10434
:102FD0002091B70421112BC09091AF046091AD04F2
:102FE000EAE09E9F600D1124482F88E292E00E9443
:102FF000332967E271E088E292E00E94F22E80912C
:10300000AF046091AD04FAE08F9F600D11244091F0
:10301000AB0488E292E00E9433296091A104709190
:10302000A2044AE050E088E292E00E94C42F80911E
:10303000B3049091B4048435910509F075C00E94E1
:103040006807C09790939C0480939B040E94680734
:10305000C09790939E0480939D040E946807C09738
:103060009093A00480939F040E946807C097909358
:10307000B0048093AF040E946807C0979093AE0499
:103080008093AD040E946807C0979093AC0480932E
:10309000AB0440919B0450919C0464E6649F9001B2
:1030A000659F300D112460919D0470919E04EAE0AB
:1030B000E69FA001E79F500D1124240F351F40917A
:1030C0009F045091A004240F351F3093A204209335
:1030D000A1042091B704211127C09091AF04609101
:1030E000AD042AE0929F600D1124482F88E292E0FF
:1030F0000E94332961E271E088E292E00E94F22EA0
:103100008091AF046091AD043AE0839F600D11247B
:103110004091AB0488E292E00E9433298091A1049F
:103120009091A2040E942C078091B3049091B40462
:103130008C34910509F075C00E946807C097909380
:103140009C0480939B040E946807C09790939E0400
:1031500080939D040E946807C0979093A004809379
:103160009F040E946807C0979093B0048093AF04B7
:103170000E946807C0979093AE048093AD040E94AC
:103180006807C0979093AC048093AB0440919B0474
:1031900050919C0464E6649F9001659F300D11245A
:1031A00060919D0470919E04EAE0E69FA001E79F74
:1031B000500D1124240F351F40919F045091A004FD
:1031C000240F351F3093A2042093A1042091B7044B
:1031D000211127C09091AF046091AD04EAE09E9F59
:1031E000600D1124482F88E292E00E94332961E2A9
:1031F00071E088E292E00E94F22E8091AF0460912B
:10320000AD04FAE08F9F600D11244091AB0488E279
:1032100092E00E9433298091A1049091A2040E941F
:103220005B028091B704811114C063E771E08AE802
:1032300096E00E94F22E6091B3047091B4048AE883
:1032400096E00E94D6016AE271E08AE896E00E9468
:103250000F2F8091B8049091B9048D34910509F035
:1032600098C00E946807C0979093B4048093B304F9
:103270000E946807C0979093B2048093B1040E94A3
:103280006807C0979093B0048093AF040E946807CA
:10329000C0979093AE048093AD040E9468079C0190
:1032A000205331093093AC042093AB048091B704D0
:1032B00081116FC04091B3045091B404AAE0A49F5F
:1032C000C001A59F900D11244091B1045091B2040A
:1032D000840F951F9093B6048093B5044091AF047A
:1032E0005091B00494E6949FB001959F700D112405
:1032F000E091AD04F091AE04AE9FA001AF9F500DE0
:103300001124640F751F620F731F7093A2046093E2
:10331000A1040E94132B6AE771E08AE896E00E94FC
:10332000F22E6091B3047091B404605D7F4F8AE81F
:1033300096E00E94D6016091B1047091B204605D84
:103340007F4F8AE896E00E94D6016091AF047091A9
:10335000B004605D7F4F8AE896E00E94D6016091DC
:10336000AD047091AE04605D7F4F8AE896E00E94E4
:10337000D6016091AB047091AC04605D7F4F8AE828
:1033800096E00E94D6016AE271E08AE896E00E9427
:103390000F2F8091B8049091B9048E34910509F0F3
:1033A00094C00E9468079093B4048093B3040E9471
:1033B00068079093B2048093B1040E9468079093C9
:1033C000B0048093AF040E9468079093AE0480938A
:1033D000AD040E9468079093AC048093AB040E94F4
:1033E00068079093AA048093A9048091B70481117F
:1033F0006CC04091B3046EE170E081EE94E00E94F5
:1034000024254091B1046FE170E081EE94E00E94C8
:1034100024254091AF0460E270E081EE94E00E94C8
:1034200024254091AD0461E270E081EE94E00E94B9
:1034300024254091AB0462E270E081EE94E00E94AA
:1034400024254091A90463E270E081EE94E00E949B
:10345000242561E871E08AE896E00E94F22E6091EE
:10346000B3047091B4048AE896E00E94D60160919A
:10347000B1047091B2048AE896E00E94D60160918E
:10348000AF047091B0048AE896E00E94D601609182
:10349000AD047091AE048AE896E00E94D601609176
:1034A000AB047091AC048AE896E00E94D60160916A
:1034B000A9047091AA048AE896E00E94D6016AE203
:1034C00071E08AE896E00E940F2F8091B8049091F5
:1034D000B9048035910509F05AC00E946807C09769
:1034E00090939E0480939D040E946807C0979093D8
:1034F000A00480939F040E9468079C012053310917
:103500003093A2042093A1048091B70481113FC09D
:1035100040919D0450919E046AE0649FC001659FA4
:10352000900D112440919F045091A004840F951F89
:103530009093B6048093B504232B11F460E001C08E
:1035400061E00E94D42B68E871E08AE896E00E946E
:10355000F22E60919D0470919E044AE050E08AE84A
:1035600096E00E94C42F60919F047091A0044AE0ED
:1035700050E08AE896E00E94C42F6091A104709107
:10358000A2044AE050E08AE896E00E94CC2F8091A5
:10359000B8049091B90482359105D1F50E9468076D
:1035A000C09790939E0480939D040E9468079C019D
:1035B000205331093093A00420939F0440919D042F
:1035C00050919E046AE0649FC001659F900D112494
:1035D000820F931F9093B6048093B5042091B70493
:1035E000211116C00E940A2C9093A2048093A1047A
:1035F00065E671E08AE896E00E94F22E6091A104EF
:103600007091A2044AE050E08AE896E00E94CC2F34
:103610008091B8049091B9048435910511F50E9408
:103620006807C0979093A2048093A104892B11F49A
:1036300040E001C041E065E270E081EE94E00E946C
:1036400024256FE871E08AE896E00E94F22E6091EE
:10365000A1047091A2044AE050E08AE896E00E943A
:10366000CC2F8091B8049091B9048735910509F069
:103670005AC00E946807C09790939E0480939D044F
:103680000E946807C0979093A00480939F040E94B3
:1036900068079C01205331093093A2042093A104B0
:1036A0008091B70481113FC040919D0450919E04C8
:1036B0006AE0649FC001659F900D112440919F04B2
:1036C0005091A004840F951F9093B6048093B50485
:1036D000232B11F460E001C061E00E94D42B66E965
:1036E00071E08AE896E00E94F22E60919D0470914C
:1036F0009E044AE050E08AE896E00E94C42F609160
:103700009F047091A0044AE050E08AE896E00E948D
:10371000C42F6091A1047091A2044AE050E08AE8AD
:1037200096E00E94CC2F8091B8049091B904853422
:10373000910509F056C00E946807C09790939E04B7
:1037400080939D040E946807C0979093A004809383
:103750009F040E946807C0979093A2048093A104DD
:103760002091B70421113DC020919D0430919E0409
:103770009AE0929FB001939F700D112420919F04B5
:103780003091A004620F731F7093B6046093B50468
:10379000482F81EE94E00E9424256DE971E08AE8CB
:1037A00096E00E94F22E60919D0470919E044AE082
:1037B00050E08AE896E00E94C42F60919F047091C7
:1037C000A0044AE050E08AE896E00E94C42F60918D
:1037D000A1047091A2044AE050E08AE896E00E94B9
:1037E000CC2F8091B8049091B90486349105D9F515
:1037F0000E946807C09790939E0480939D040E9446
:103800006807C0979093A00480939F0490919D04B3
:103810002AE0929F800D1124809392049091B70426
:10382000911121C090E00E94F9059093910480933A
:10383000900464EA71E08AE896E00E94F22E6091BA
:103840009D0470919E044AE050E08AE896E00E9450
:10385000C42F60919F047091A0044AE050E08AE870
:1038600096E00E94CC2F8091B8049091B9048734DF
:10387000910509F04FC00E946807C09790939E047D
:1038800080939D040E946807C0979093A004809342
:103890009F040E946807C0979093A2048093A1049C
:1038A00020919D0460919F043AE0239F600D1124B4
:1038B000609392042091B70421112CC070E0685DE0
:1038C0007F4F482F81EE94E00E9424256BEA71E03F
:1038D0008AE896E00E94F22E60919D0470919E0409
:1038E0004AE050E08AE896E00E94C42F60919F046D
:1038F0007091A0044AE050E08AE896E00E94C42F4C
:103900006091A1047091A2044AE050E08AE896E038
:103910000E94CC2F8091B8049091B9048236910511
:1039200009F050C00E946807C09790939E0480934E
:103930009D040E946807C0979093A00480939F0401
:1039400040919D0450919E046AE0649F9001659FA0
:10395000300D1124280F391F2C3031052CF43093F1
:10396000A2042093A10406C087E090E09093A204F3
:103970008093A1048091B704811124C04091A104D7
:1039800064E870E081EE94E00E94242562EB71E02F
:103990008AE896E00E94F22E60919D0470919E0448
:1039A0004AE050E08AE896E00E94C42F60919F04AC
:1039B0007091A0044AE050E08AE896E00E94CC2F83
:1039C0000E941C068091B8049091B9048834910536
:1039D00009F01CC10E946807C09790939E048093D1
:1039E0009D040E946807C0979093A00480939F0451
:1039F0000E9468079093B4048093B3040E94680700
:103A00009093B2048093B1040E9468079093B0042D
:103A10008093AF040E9468079093AE048093AD0436
:103A20000E9468079093AC048093AB040E946807DF
:103A30009093AA048093A9040E9468079093A80415
:103A40008093A7040E9468079093A6048093A5041E
:103A500080919D0460919F049AE0899F600D1124DC
:103A6000609392048091B7048111D0C0E8E06E9F0A
:103A7000B00111246F5C7F4F4091B30481EE94E05C
:103A80000E94242560919204F8E06F9FB0011124F8
:103A90006E5C7F4F4091B10481EE94E00E9424253A
:103AA0006091920428E0629FB00111246D5C7F4F09
:103AB0004091AF0481EE94E00E942425609192042D
:103AC00038E0639FB00111246C5C7F4F4091AD04DE
:103AD00081EE94E00E9424256091920488E0689F22
:103AE000B00111246B5C7F4F4091AB0481EE94E0F8
:103AF0000E9424256091920498E0699FB0011124EE
:103B00006A5C7F4F4091A90481EE94E00E942425D5
:103B100060919204E8E06E9FB0011124695C7F4FD0
:103B20004091A70481EE94E00E94242560919204C4
:103B300070E0695F7F4F83E0660F771F8A95E1F73A
:103B40004091A50481EE94E00E94242569EB71E088
:103B50008AE896E00E94F22E60919D0470919E0486
:103B60004AE050E08AE896E00E94C42F60919F04EA
:103B70007091A0044AE050E08AE896E00E94C42FC9
:103B80006091B3047091B4048AE896E00E94D60173
:103B90006091B1047091B2048AE896E00E94D60167
:103BA0006091AF047091B0048AE896E00E94D6015B
:103BB0006091AD047091AE048AE896E00E94D6014F
:103BC0006091AB047091AC048AE896E00E94D60143
:103BD0006091A9047091AA048AE896E00E94D60137
:103BE0006091A7047091A8048AE896E00E94D6012B
:103BF0006091A5047091A6048AE896E00E94D6011F
:103C00006AE271E08AE896E00E940F2F8091B80482
:103C10009091B9048F34910509F022C10E94680780
:103C2000C09790939E0480939D040E946807C0975C
:103C30009093A00480939F040E946807C09790937C
:103C4000B4048093B3040E946807C0979093B204B1
:103C50008093B1040E946807C0979093B00480934A
:103C6000AF040E946807C0979093AE048093AD04A0
:103C70000E946807C0979093AC048093AB040E94A5
:103C80006807C0979093AA048093A9040E946807CC
:103C9000C0979093A8048093A7040E946807C097D8
:103CA0009093A6048093A50420919D04D0909F0436
:103CB000FAE02F9FD00C1124D0929204A091B3046B
:103CC000B091B404E091B104F091B2046091AF04FA
:103CD0007091B004A090AD04B090AE040091AB041C
:103CE0001091AC04E090A904F090AA048090A7047D
:103CF0009090A8042091B7042111B2C048EE53E07F
:103D0000049F9001059F300D149F300D112414E67F
:103D1000C12ECE9C8001CF9C100D1124200F311F8D
:103D20000AE0F02EF89C8001F99C100D1124200F60
:103D3000311F280F391F8901222717FD2095322FA7
:103D4000A49FC001A59F900DB49F900D1124CE9EFD
:103D5000A001CF9E500D1124840F951FF69EA00147
:103D6000F79E500D1124840F951F8A0D9B1DAC01E9
:103D7000662757FD6095762F8D2D90E00E94DD011E
:103D800060EC71E08AE896E00E94F22E60919D045A
:103D900070919E044AE050E08AE896E00E94C42FA9
:103DA00060919F047091A0044AE050E08AE896E098
:103DB0000E94C42F6091B3047091B4044AE050E0B3
:103DC0008AE896E00E94C42F6091B1047091B20419
:103DD0004AE050E08AE896E00E94C42F6091AF0468
:103DE0007091B0044AE050E08AE896E00E94C42F47
:103DF0006091AD047091AE044AE050E08AE896E02C
:103E00000E94C42F6091AB047091AC044AE050E072
:103E10008AE896E00E94C42F6091A9047091AA04D8
:103E20004AE050E08AE896E00E94C42F6091A7041F
:103E30007091A8044AE050E08AE896E00E94C42FFE
:103E40006091A5047091A6044AE050E08AE896E0EB
:103E50000E94C42F6AE271E08AE896E00E940F2F68
:103E60008091B8049091B9048B34910509F006C192
:103E70000E946807C09790939E0480939D040E94BF
:103E80006807C0979093A00480939F0490919D042D
:103E90002AE0929F800D1124809392049091B704A0
:103EA0009111ECC038E0839FB00111246F5C7F4F0B
:103EB00081EE94E00E94212590E09093B4048093D9
:103EC000B3046091920488E0689FB00111246E5C95
:103ED0007F4F81EE94E00E94212590E09093B20400
:103EE0008093B1046091920498E0699FB00111241D
:103EF0006D5C7F4F81EE94E00E94212590E09093CD
:103F0000B0048093AF0460919204E8E06E9FB0012A
:103F100011246C5C7F4F81EE94E00E94212590E09B
:103F20009093AE048093AD0460919204F8E06F9F8B
:103F3000B00111246B5C7F4F81EE94E00E9421253B
:103F400090E09093AC048093AB046091920428E0DD
:103F5000629FB00111246A5C7F4F81EE94E00E9461
:103F6000212590E09093AA048093A9046091920483
:103F700038E0639FB0011124695C7F4F81EE94E0CB
:103F80000E94212590E09093A8048093A70460915B
:103F9000920470E0695F7F4F23E0660F771F2A95D8
:103FA000E1F781EE94E00E94212590E09093A60431
:103FB0008093A5046091920470E0685D7F4F81EE6C
:103FC00094E00E94212590E09093A2048093A104A4
:103FD00065E671E08AE896E00E94F22E6091B304F3
:103FE0007091B4048AE896E00E94D6016091B10411
:103FF0007091B2048AE896E00E94D6016091AF0405
:104000007091B0048AE896E00E94D6016091AD04F8
:104010007091AE048AE896E00E94D6016091AB04EC
:104020007091AC048AE896E00E94D6016091A904E0
:104030007091AA048AE896E00E94D6016091A704D4
:104040007091A8048AE896E00E94D6016091A504C8
:104050007091A6048AE896E00E94D60167EC71E0B0
:104060008AE896E00E94F22E6091A1047091A20469
:104070004AE050E08AE896E00E94CC2F8091B80494
:104080009091B9048335910509F083C00E946807B7
:10409000C09790939E0480939D040E946807C097E8
:1040A0009093A00480939F0440919D0450919E049E
:1040B0001AE0149F9001159F300D1124280F391F0D
:1040C0003093B6042093B5040E946807C09790937C
:1040D0009C0480939B040E946807C09790939E0461
:1040E00080939D040E946807C0979093A0048093DA
:1040F0009F042091B70421114CC020919B04309162
:104100009C0444E6429FB001439F700D11244091EE
:104110009D0450919E04149F9001159F300D112411
:10412000620F731F680F791F7093A2046093A1043C
:10413000E091B504F091B6043497EA30F10518F532
:10414000E959FE4F0C94BD338FE492E01AC08CE421
:1041500092E017C089E492E014C086E492E011C0B6
:1041600083E492E00EC080E492E00BC08DE392E025
:1041700008C08AE392E005C087E392E002C084E3CE
:1041800092E00E94BC2469EC71E08AE896E00E940B
:104190000F2F8091B8049091B9048635910511F4E0
:1041A0000E947B058091B8049091B90488359105EF
:1041B00041F460ED71E08AE896E00E940F2F0E94C2
:1041C000AF078091B8049091B9048936910509F040
:1041D00034C20E9468079093B4048093B304209182
:1041E000B70421112AC28235910509F0A9C00E94A5
:1041F0006807C0979093B2048093B1040E94680747
:10420000C0979093B0048093AF040E946807C09752
:104210009093AE048093AD040E946807C09790937A
:10422000AC048093AB040E946807C0979093AA04E3
:104230008093A9042091B1043091B20444E6429FD6
:10424000B001439F700D11244091AF045091B00410
:10425000EAE0E49F9001E59F300D1124620F731F87
:104260002091AD043091AE04620F731F7093A804C7
:104270006093A7042091AB043091AC04E29FA001AD
:10428000E39F500D1124480F591F5093A6044093EB
:10429000A5048091B704811153C082EE94E00E947E
:1042A000D62565E671E08AE896E00E94F22E11E0DC
:1042B000212F30E08091A5049091A604281739079A
:1042C000ECF461E070E080E090E00E94892A82EEE8
:1042D00094E00E9430259093A4048093A3044AE0C4
:1042E00050E0BC018AE896E00E94C42F60EE71E0C5
:1042F0008AE896E00E94F22E1F5FDACF61E070E05C
:1043000080E090E00E94892A82EE94E00E943025AD
:104310009093A4048093A30482EE94E00E94F82575
:104320006091A3047091A4044AE050E08AE896E00A
:104330000E94CC2F61E070E080E090E00E94892A2A
:104340008091B3049091B4048735910509F0B7C00A
:104350000E946807C0979093B2048093B1040E94B2
:104360006807C0979093B0048093AF040E946807D9
:10437000C0979093AE048093AD040E946807C097E5
:104380009093AC048093AB040E946807C09790930D
:10439000AA048093A9042091B1043091B20444E6A8
:1043A000429FB001439F700D11244091AF04509182
:1043B000B004EAE0E49F9001E59F300D1124620F04
:1043C000731F2091AD043091AE04620F731F709380
:1043D000A8046093A7044091AB045091AC04E49FFF
:1043E0009001E59F300D1124280F391F3093A6044A
:1043F0002093A5048091B704811161C082EE94E0FE
:104400000E94E32511E004E69AE0F92E212F30E026
:104410008091A5049091A604821793070CF43FC0E5
:104420000E946807C0979093B2048093B1040E94E1
:104430006807C0979093B0048093AF040E94680708
:10444000C0979093AE048093AD044091B104509115
:10445000B204049F9001059F300D11246091AF04B8
:104460007091B004F69EA001F79E500D1124240F08
:10447000351F280F391F3093A8042093A70461E04B
:1044800070E080E090E00E94892A6091A70470911A
:10449000A80482EE94E00E94CC011F5FB7CF61E0D8
:1044A00070E080E090E00E94892A82EE94E00E9411
:1044B000F82562EE71E08AE896E00E940F2F809165
:1044C000B3049091B4048737910509F0B6C00E94F7
:1044D0006807C0979093B2048093B1040E94680764
:1044E000C0979093B0048093AF040E946807C09770
:1044F0009093AE048093AD040E946807C097909398
:10450000AC048093AB040E946807C0979093AA0400
:104510008093A9042091B1043091B20444E6429FF3
:10452000B001439F700D11244091AF045091B0042D
:10453000EAE0E49F9001E59F300D1124620F731FA4
:104540002091AD043091AE04620F731F7093A804E4
:104550006093A7044091AB045091AC04E49F900198
:10456000E59F300D1124280F391F3093A6042093A6
:10457000A5048091B704811160C082EE94E00E948E
:10458000E32511E004E68AE0F82E212F30E0809147
:10459000A5049091A60482179307ACF10E946807C6
:1045A000C0979093B2048093B1040E946807C097AB
:1045B0009093B0048093AF040E946807C0979093D3
:1045C000AE048093AD042091B1043091B204029FF7
:1045D000B001039F700D11244091AF045091B004BD
:1045E000F49E9001F59E300D1124620F731F680F29
:1045F000791F7093A8046093A70482EE94E00E9450
:10460000CC011F5FC2CF60E082EE94E00E94E525FE
:104610006AEE71E08AE896E00F900F900F90DF91BC
:10462000CF911F910F91FF90EF90DF90CF90BF90AF
:10463000AF909F908F900C940F2F0F900F900F9032
:10464000DF91CF911F910F91FF90EF90DF90CF906E
:10465000BF90AF909F908F9008951F920F920FB6CA
:104660000F9211242F933F934F935F936F937F93F8
:104670008F939F93AF93BF93EF93FF938091BC046D
:1046800087FF05C010928500109284001AC0209107
:10469000BC04332727FD30958091BB0490E0281798
:1046A00039077CF48091BC04992787FD9095FC0123
:1046B000EE0FFF1FE80FF91FE354FB4F808186FDCB
:1046C00015C08091BC048F5F8093BC042091BC0412
:1046D000332727FD30958091BB0490E028173907D8
:1046E000BCF48091BC048C305CF112C08091BC049D
:1046F000992787FD9095FC01EE0FFF1FE80FF91F2A
:10470000E354FB4F808160E08F730E94D42BD9CF9C
:104710008091840090918500049680349C4918F41F
:1047200080E49CE905C08091840090918500049606
:1047300090938900809388008FEF8093BC0438C0E9
:1047400020918400309185008091BC04992787FDD9
:104750009095FC01EE0FFF1FE80FF91FE354FB4F8C
:1047600081819281820F931F9093890080938800AA
:104770008091BC04992787FD9095FC01EE0FFF1FE7
:10478000E80FF91FE354FB4F808186FF11C0809131
:10479000BC04992787FD9095FC01EE0FFF1FE80FE1
:1047A000F91FE354FB4F808161E08F730E94D42B8B
:1047B000FF91EF91BF91AF919F918F917F916F91F9
:1047C0005F914F913F912F910F900FBE0F901F90CF
:1047D00018952091BB042C30A0F431E0320F3093B7
:1047E000BB04FC012083822F90E0FC01EE0FFF1F31
:1047F000E80FF91FE354FB4F88EB9BE09283818322
:1048000008952FEFFC0120830895DF92EF92FF922D
:104810000F931F93CF93DF93EC01D62E7A0189017A
:1048200088818C3008F066C061E08D2D0E949B2B42
:104830008881A82FB0E0FD01EE0FFF1FEA0FFB1FDC
:10484000E354FB4F2D2D2F739081907C922B9083FE
:1048500060E272E06E197F0977FF02C06D5F7F4FE3
:104860007595679575956795698340E659E0401B96
:10487000510B57FF02C04D5F5F4F559547955595BA
:1048800047954A836CE00E9448339CE0899FB001C1
:10489000112420E030E0A901460F571FFA01EE0F66
:1048A000FF1FE40FF51FE354FB4F908196FD16C0E8
:1048B0002F5F3F4F2C30310571F781110FC01092DF
:1048C000800082E080938100109285001092840025
:1048D000B19A80916F00826080936F00888190E030
:1048E000FC01EE0FFF1FE80FF91FE354FB4F80811F
:1048F000806480838881DF91CF911F910F91FF9019
:10490000EF90DF90089520E639E040E252E00C9409
:104910000524FC0180818C3070F5918128E830E01D
:10492000291B310997FD3395220F331F220F331FA7
:10493000621773077CF0928128E532E0291B310968
:1049400097FD3395220F331F220F331F6217730712
:104950000CF49B0122503109220F331F4FB7F894FA
:1049600090E0FC01EE0FFF1FE80FF91FE354FB4F2F
:10497000328321834FBF08954F925F926F927F924F
:10498000AF92BF92CF92DF92EF92FF920F931F935D
:10499000CF93DF93EC01603282E078070CF040C0E7
:1049A00077FD06C0653B71052CF064EB70E002C03A
:1049B00060E070E0898128E830E0281B310987FD3C
:1049C0003395220F331F220F331F5901CC24B7FC1C
:1049D000C094DC2C882777FD8095982F2A8148E5A4
:1049E00052E0421B510927FD5395440F551F440FB8
:1049F000551F2A01662457FC6094762C7F926F9293
:104A00005F924F9214EBE12EF12C00E010E020E0D9
:104A100030E0A9010E94D1300F900F900F900F90BD
:104A2000CE01DF91CF911F910F91FF90EF90DF901A
:104A3000CF90BF90AF907F906F905F904F900C940D
:104A40008924CB010C94DD33CB01642F0C94E53326
:104A50008091120590E020911305821B9109089521
:104A60002091130580911205281750F4E22FF0E0F1
:104A7000EC5EFA4F808190E02F5F2093130508953C
:104A80008FEF9FEF0895E091130580911205E817CD
:104A900030F4F0E0EC5EFA4F808190E008958FEF03
:104AA0009FEF08950895CF92DF92EF92FF920F93B8
:104AB0001F93CF93DF937C01CB018A012091EE04F9
:104AC000222389F0EB016B01C40ED51ECC15DD0548
:104AD00069F06991D701ED91FC910190F081E02D91
:104AE000C7010995F3CF642F0E94B426C801DF9156
:104AF000CF911F910F91FF90EF90DF90CF9008958D
:104B0000CF93DF931F92CDB7DEB769832091EE0478
:104B10002223D1F02091EF04203240F021E030E058
:104B2000FC013383228380E090E015C08091F00483
:104B3000E82FF0E0EF50FB4F998190838F5F8093D7
:104B4000F0048093EF0405C061E0CE0101960E945D
:104B5000B42681E090E00F90DF91CF910895FC01A1
:104B60001382128248EE53E060E070E04483558384
:104B70006683778386EF91E0918380830895109216
:104B80001305109212051092F0041092EF040C9489
:104B9000FF25862F413208F040E264E175E00E9473
:104BA0001D261092130580931205089521E00C94A0
:104BB000C92581E08093EE04609311051092F00402
:104BC0001092EF0408950C94D9250F93062F21E03D
:104BD0004091EF0461EF74E0809111050E9461261D
:104BE0001092F0041092EF041092EE040F910895C9
:104BF00061E00C94E52582EE94E00C94AF251092D0
:104C0000A10581E080939F0510929E0561E082E1FD
:104C10000E94D42B61E083E10E94D42BE9EBF0E009
:104C200080818E7F808380818D7F808388E48093E4
:104C3000B80085E48093BC000895413208F03FC07D
:104C40009091A1059111FCCF91E09093A105209343
:104C50009F052FEF2093340510927905240F2093A0
:104C600078059093A0059091A005880F892B8093DB
:104C7000A00580919E05813041F410929E0580919F
:104C8000A0058093BB0085EC01C085EE8093BC003D
:104C90008091A1058130E1F380917905841710F4AA
:104CA000409179052AE735E0FB01D9018A2F821B63
:104CB000841718F48D918193F9CF842F089580E0A3
:104CC00008950F93413208F046C09091A1059111CB
:104CD000FCCF92E09093A10500939F059FEF9093E6
:104CE00034051092790540937805FB016AE775E079
:104CF000DB019A2F961B941718F491919D93F9CF8D
:104D00001092A0059091A005880F892B8093A00593
:104D100080919E05813041F410929E058091A005FE
:104D20008093BB0085EC01C085EE8093BC002223FC
:104D300021F08091A1058230E1F3809134058F3F0D
:104D400061F080913405803251F0809134058033D8
:104D500041F483E007C081E005C080E003C082E049
:104D600001C084E00F910895613298F42091A1056B
:104D7000243089F460935605FC0188E595E0DC0158
:104D80002A2F281B261718F421912D93F9CF80E0A4
:104D9000089581E0089582E0089585ED8093BC0038
:104DA0008091BC0084FDFCCF1092A105089585EC94
:104DB0008093BC001092A10508951F920F920FB628
:104DC0000F9211242F933F934F935F936F937F9391
:104DD0008F939F93AF93BF93EF93FF938091B9000D
:104DE000887F803609F49CC068F5883209F45BC07E
:104DF00090F4803109F454C038F4882309F4F5C0E4
:104E0000883009F44DC0F5C0883109F44CC08032B7
:104E100009F45DC0EEC0803409F468C048F4803302
:104E200009F455C0883309F0E4C080933405A8C064
:104E3000803509F44FC0883509F45DC0883409F025
:104E4000D8C0D5C0883909F4C6C0A8F4883709F499
:104E500067C038F4883609F463C0803709F460C04D
:104E6000C8C0883809F4B7C0803909F45FC08038F9
:104E700009F0BFC05BC0803B09F485C038F4803ABC
:104E800009F466C0883A09F47EC0B3C0803C09F4D6
:104E9000A6C0883C09F4A3C0883B09F489C0A9C016
:104EA0008091A00510C090917905809178059817A0
:104EB00070F5E091790581E08E0F80937905F0E03F
:104EC000E658FA4F80818093BB0085EC85C08093C3
:104ED00034058DC0E091790581E08E0F80937905CE
:104EE0008091BB00F0E0E658FA4F808390917905FD
:104EF000809178056DC0E091790581E08E0F8093F7
:104F000079058091BB00F0E0E658FA4F80838091EC
:104F10009F0581116CC081E080939E0584EA60C08A
:104F200083E08093A10510923505CFCF80913505A0
:104F3000803208F050C0E091350581E08E0F8093FB
:104F400035058091BB00F0E0EA5CFA4F8083BDCF6D
:104F500080913505803230F4E0913505F0E0EA5C6F
:104F6000FA4F10820E94CD266091350570E0E091E5
:104F70009A05F0919B0586E395E009951092350519
:104F80000E94D72636C084E08093A1051092570571
:104F900010925605E0919C05F0919D050995809130
:104FA0005605811105C081E0809356051092580581
:104FB000E091570581E08E0F80935705F0E0E85AA5
:104FC000FA4F80818093BB009091570580915605E0
:104FD000981708F47ACF85E88093BC000AC085EC66
:104FE0008093BC001092A10504C0109234050E9469
:104FF000CD26FF91EF91BF91AF919F918F917F91BE
:105000006F915F914F913F912F910F900FBE0F9035
:105010001F9018951F920F920FB60F9211242F9385
:105020003F934F935F936F937F938F939F93AF9330
:10503000BF93EF93FF938091A2050E940A2C2091C9
:10504000A5053091A6052F5F3F4F3093A60520930D
:10505000A50590916F06943618F095E09093A305FE
:105060009091A3059330B9F018F4923039F057C0FD
:10507000943059F1953009F44CC051C081114FC0A2
:105080002091A5053091A6052436310508F443C0CA
:1050900010926F061CC0813009F041C0E0916F068C
:1050A00091E09E0F90936F06F0E02091A50530915E
:1050B000A605EE0FFF1FEE55FA4F3683258310929B
:1050C000A6051092A50594E021C0811117C0E091BA
:1050D0006F0691E09E0F90936F06F0E02091A5057A
:1050E0003091A605EE0FFF1FEE55FA4F368325834C
:1050F0001092A6051092A50593E008C02091A50581
:105100003091A6052536310550F095E09093A30522
:1051100006C0811104C01092A6051092A5059091B9
:10512000A405992329F0811102C02D9A01C02D9860
:10513000FF91EF91BF91AF919F918F917F916F916F
:105140005F914F913F912F910F900FBE0F901F9045
:105150001895FC011382128286E092E0918380838D
:10516000648341872287138608951F93CF93DF932B
:10517000EC01162F6C8182EE94E00E94D925E0911B
:10518000E204F091E3046B85612B0190F081E02D46
:1051900082EE94E0099582EE94E0DF91CF911F9129
:1051A0000C94F82528E0FC01238760E00C94B528D6
:1051B0001F93CF93DF93EC01162F64600E94B528F4
:1051C00081E090E00E94B12A612F6B7FCE010E94A6
:1051D000B52882E390E0DF91CF911F910C94B12A22
:1051E0001F93CF93DF93EC01162F0E94B528612FF8
:1051F000CE01DF91CF911F910C94D828EF92FF92AE
:105200001F93CF93DF931F92CDB7DEB77C01162F8C
:10521000607F642B49830E94F02880E1189FB001D1
:1052200011244981642BC7010F90DF91CF911F9109
:10523000FF90EF900C94F02841E00E94FE2880E05F
:1052400090E0089540E00C94FE2861E00E9422293D
:1052500080ED97E00C94B12A62E00E94222980ED53
:1052600097E00C94B12ACF93DF93CDB7DEB72897A0
:105270000FB6F894DEBF0FBECDBF28E0E5E0F1E049
:10528000DE01119601900D922A95E1F7FC0120852F
:10529000241710F44FEF420FFE013196E40FF11D79
:1052A000E40FF11D2081260F2068622F28960FB68B
:1052B000F894DEBF0FBECDBFDF91CF910C942229B1
:1052C000FC016681262F246026836C600C942229C1
:1052D000CF93DF93EC01423018F08D8188608D838D
:1052E0004887222329F0413019F48D8184608D8311
:1052F00062E370E080E090E00E94892A6B85CE0135
:105300000E94B52868EE73E080E090E00E94892A50
:1053100060E3CE010E94F02884E991E10E94B12A65
:1053200060E3CE010E94F02884E991E10E94B12A55
:1053300060E3CE010E94F02886E990E00E94B12A45
:1053400060E2CE010E94F0286D816062CE010E9471
:10535000222984E08E83CE010E946029CE010E9422
:10536000252982E08F8366E0CE010E942229CE01AA
:10537000DF91CF910C942C29CF93DF93EC0182EE37
:1053800094E00E94BF251D8220E04A856985CE01F8
:10539000DF91CF910C9468290C94BC2982EE94E0A3
:1053A0000C94BF25EF92FF920F931F93CF93DF933F
:1053B000C62F7A01022F68E670E082EE94E00E9428
:1053C000E3256C2F6F73685F82EE94E00E94802566
:1053D00082EE94E00E94F82581111BC010E0A80124
:1053E00068E670E082EE94E00E94D62582EE94E0BA
:1053F0000E942825892BD1F3E701CE018E199F0940
:105400008017910734F482EE94E00E94302589934E
:10541000F4CFDF91CF911F910F91FF90EF900895FE
:105420001F920F920FB60F9211242F933F938F93D9
:105430009F93AF93BF938091820690918306A09132
:105440008406B09185063091810623E0230F2D3725
:1054500020F40196A11DB11D05C026E8230F029678
:10546000A11DB11D2093810680938206909383062F
:10547000A0938406B0938506809186069091870656
:10548000A0918806B09189060196A11DB11D809357
:10549000860690938706A0938806B0938906BF91ED
:1054A000AF919F918F913F912F910F900FBE0F90D1
:1054B0001F9018952FB7F89460918206709183061B
:1054C00080918406909185062FBF08953FB7F89488
:1054D0008091860690918706A0918806B0918906F2
:1054E00026B5A89B05C02F3F19F00196A11DB11D3F
:1054F0003FBF6627782F892F9A2F620F711D811D5C
:10550000911D42E0660F771F881F991F4A95D1F7BA
:105510000895CF92DF92EF92FF92CF93DF936B01CA
:105520007C010E94662AEB01C114D104E104F1045C
:1055300089F00E9418310E94662A6C1B7D0B683E20
:10554000734090F381E0C81AD108E108F108C8510E
:10555000DC4FEACFDF91CF91FF90EF90DF90CF90BB
:105560000895019739F0880F991F880F991F0297A6
:105570000197F1F70895789484B5826084BD84B56D
:10558000816084BD85B5826085BD85B5816085BD3E
:10559000EEE6F0E0808181608083E1E8F0E0108257
:1055A000808182608083808181608083E0E8F0E098
:1055B000808181608083E1EBF0E080818460808382
:1055C000E0EBF0E0808181608083EAE7F0E08081B9
:1055D0008460808380818260808380818160808319
:1055E0008081806880831092C10008958E3008F019
:1055F0008E5087702091040190E4299F900111241E
:10560000822B80937C0080917A00806480937A0062
:1056100080917A0086FDFCCF8091780020917900FE
:1056200090E0922B08951F93CF93DF93182FEB01F7
:1056300061E00E949B2B209711F460E004C0CF3FF3
:10564000D10539F461E0812FDF91CF911F910C9446
:10565000D42BE12FF0E0EE51FD4FE491E330F9F06F
:1056600048F4E130B9F0E230A1F584B5806284BD40
:10567000C8BD34C0E730E9F0E83019F1E43049F54D
:1056800080918000806280938000D0938B00C093D3
:105690008A0024C084B5806884BDC7BD1FC08091C6
:1056A0008000806880938000D0938900C093880038
:1056B00015C08091B00080688093B000C093B300A3
:1056C0000DC08091B00080628093B000C093B400A0
:1056D00005C0C038D1050CF0B5CFAFCFDF91CF9169
:1056E0001F910895833081F028F4813099F0823041
:1056F000A1F008958730A9F08830B9F08430D1F452
:10570000809180008F7D03C0809180008F7780938F
:105710008000089584B58F7702C084B58F7D84BDE5
:1057200008958091B0008F7703C08091B0008F7D85
:105730008093B0000895CF93DF9390E0FC01EA508E
:10574000FD4F2491FC01E65FFC4F8491882349F1D1
:1057500090E0880F991FFC01EE5CFC4FA591B4917D
:10576000885D9C4FFC01C591D4919FB7611108C021
:10577000F8948C91209582238C93888182230AC08F
:10578000623051F4F8948C91322F309583238C93AE
:105790008881822B888304C0F8948C91822B8C930F
:1057A0009FBFDF91CF9108950F931F93CF93DF9306
:1057B0001F92CDB7DEB7282F30E0F901EE51FD4F33
:1057C0008491F901EA50FD4F1491F901E65FFC4F15
:1057D00004910023C9F0882321F069830E94722B71
:1057E0006981E02FF0E0EE0FFF1FE85DFC4FA5910F
:1057F000B4919FB7F8948C91611103C010958123E7
:1058000001C0812B8C939FBF0F90DF91CF911F918F
:105810000F910895CF93DF93282F30E0F901EE51D7
:10582000FD4F8491F901EA50FD4FD491F901E65FF3
:10583000FC4FC491CC2391F081110E94722BEC2F6C
:10584000F0E0EE0FFF1FE25EFC4FA591B4912C91AA
:105850002D2381E090E021F480E002C080E090E020
:10586000DF91CF910895CF92DF92EF92FF920F9345
:105870001F93CF93DF9390E0FC01EA50FD4FD4914A
:10588000FC01E65FFC4F7491611102C0C0E001C0F1
:10589000CD2FDA01C901BF70672F70E0660F771F47
:1058A000625E7C4F00E010E09801FB01E590F4900F
:1058B000F70140814D234C131EC0680179014FEF61
:1058C000C41AD40AE40AF40A081719072A073B077E
:1058D00009F442C097018601E8CF68017901FFEF22
:1058E000CF1ADF0AEF0AFF0A081719072A073B0732
:1058F00099F197018601FB01E590F490F701408151
:105900004D234C13EACF801B910BA20BB30B20E06D
:1059100030E0A901FB01E590F490F701F080FD2251
:10592000FC120AC0281739074A075B07A9F02F5F46
:105930003F4F4F4F5F4FEECFA5E1B0E00E94D23313
:10594000605F7F4F8F4F9F4F24E0969587957795A7
:1059500067952A95D1F703C060E070E0CB01DF9135
:10596000CF911F910F91FF90EF90DF90CF9008950E
:10597000FC01818D228D90E0805C9F4F821B9109FC
:1059800060E470E00E9468330895FC01918D828D7F
:10599000981731F0828DE80FF11D858D90E0089504
:1059A0008FEF9FEF0895FC01918D828D981761F024
:1059B000828DDF01A80FB11D5D968C91928D9F5F46
:1059C0009F73928F90E008958FEF9FEF089587E582
:1059D0009EE2892B49F080E090E0892B29F00E941B
:1059E000572E81110C9400000895FC01848DDF0175
:1059F000A80FB11DA35ABF4F2C91848D90E0019642
:105A00008F739927848FA689B7892C93A089B18930
:105A10008C9180648C93938D848D981306C002883A
:105A2000F389E02D80818F7D80830895CF93DF936C
:105A3000EC01888D8823C9F0EA89FB89808185FD86
:105A400005C0A889B9898C9186FD0FC00FB607FCE7
:105A5000F5CF808185FFF2CFA889B9898C9185FF28
:105A6000EDCFCE010E94F52CE7CFDF91CF910895C5
:105A7000CF92DF92FF920F931F93CF93DF931F92EA
:105A8000CDB7DEB76C01DC015B969C915B975C96B1
:105A90008C915C97981307C05096ED91FC915197AB
:105AA000808185FD32C0F601038D10E00F5F1F4F2E
:105AB0000F731127F02EF601848DF81211C00FB666
:105AC00007FCF9CFD6015096ED91FC91519780815A
:105AD00085FFF1CFC60169830E94F52C6981EBCF68
