:10000000FCC000002BC1000029C1000027C1000076
:1000100025C1000023C1000021C100001FC1000054
:100020001DC100001BC1000019C1000017C1000064
:1000300015C1000013C1000011C100000FC1000074
:100040000DC100000BC1000009C1000007C1000084
:1000500005C1000003C1000001C10000C8C60000C6
:10006000FDC000000C948D090C94C309F7C000007A
:10007000F5C00000F3C00000F1C00000EFC00000B8
:10008000EDC00000EBC00000E9C00000E7C00000C8
:10009000E5C00000E3C00000E1C000002BC3000089
:1000A000DDC00000DBC00000D9C00000D7C00000E8
:1000B000D5C00000D3C00000D1C00000CFC00000F8
:1000C000CDC00000CBC00000C9C00000C7C0000008
:1000D000C5C00000C3C00000C1C00000BFC0000018
:1000E000BDC000000D081008FF07030809084708F5
:1000F000140818081E08220826082C08300834089E
:1001000047083A083E08420800000A0B02090C0D95
:100110000E080703040100000000000000000000BA
:1001200000000000000000000000000000000000CF
:10013000000000001211100000000000000000008C
:1001400000000000000000000000000000000102AC
:1001500010202008081020401020408002010201D9
:100160000804020101020408102040808040201091
:1001700008040201800402018040201008040201EA
:100180000804020101020408102040800102040852
:10019000102040800505050507050808080802022B
:1001A00002020A0A08080404040401010101010111
:1001B00001010303030303030303040707070C0CF4
:1001C0000C0C0C0C0C0C02020202060606060606BB
:1001D00006060B0B0B0B0B0B0B0B00002200250074
:1001E00028002B002E003100340002010000050120
:1001F00008010B012F019B02F50911241FBECFEF4F
:10020000D1E2DEBFCDBF00E00CBF12E0A0E0B2E063
:10021000E8E7F5E100E00BBF02C007900D92AE37B2
:10022000B107D9F723E0AEE7B2E001C01D92AD3FC0
:10023000B207E1F711E0CAEFD1E000E006C0229773
:100240000109FE010BBF0E949E0AC43FD10780E056
:100250000807A9F70E94390A0C94BA0AD1CE8F92E6
:10026000AF92CF92EF920F931F921F9283E08F93E2
:1002700087E0882E96E0A92E25E0C22E34E0E32EFA
:1002800000E021E042E067E28EE792E014D50F90B3
:100290000F900F900F91EF90CF90AF908F900895A7
:1002A000CF93DF9320E042E060E18EE792E087D5D4
:1002B000C3E0D0E08EE792E0AFD36AEF70E080E079
:1002C00090E002D68EE792E0AFD36AEF70E080E074
:1002D00090E0FAD5219771F78EE792E09DD340E048
:1002E00060E08EE792E0B5D360E072E08EE792E0E6
:1002F0000E94830A68EE73E080E090E0E5D541E07B
:1003000060E08EE792E0A5D36EE072E08EE792E0C7
:100310000E94830A60E47FE180E090E0D5D58EE71B
:1003200092E092D340E060E08EE792E092D36FE1FA
:1003300072E08EE792E00E94830A41E060E08EE77F
:1003400092E087D36EE272E08EE792E0DF91CF9188
:100350000C94830ACF93DF9380E693E0CFD6892B6A
:10036000E9F064E670E080E090E0AED58EE792E0E0
:100370006BD380E693E0C2D6181619067CF4E091A0
:100380007E02F0917F02C081D18180E693E0CFD6DA
:10039000682F8EE792E0FE011995EBCFDF91CF91A8
:1003A00008958091C70290E02091C802821B9109B4
:1003B00008952091C8028091C702281750F4E22FB7
:1003C000F0E0E753FD4F808190E02F5F2093C8025B
:1003D00008958FEF9FEF0895E091C8028091C702C2
:1003E000E81730F4F0E0E753FD4F808190E0089586
:1003F0008FEF9FEF08950895CF92DF92EF92FF92D3
:100400000F931F93CF93DF937C01CB018A0120913F
:10041000A302222389F0EB016B01C40ED51ECC157B
:10042000DD0561F06991D701ED91FC910190F081BA
:10043000E02DC7011995F3CF642F33D1C801DF91A7
:10044000CF911F910F91FF90EF90DF90CF90089583
:10045000CF93DF931F92CDB7DEB769832091A302BC
:100460002223D1F02091A402203240F021E030E09C
:10047000FC013383228380E090E014C08091A502C8
:10048000E82FF0E0EA55FD4F998190838F5F8093CC
:10049000A5028093A40204C061E0CE01019601D1BF
:1004A00081E090E00F90DF91CF910895FC011382DD
:1004B000128248EE53E060E070E044835583668327
:1004C000778382E492E09183808308951092C8023A
:1004D0001092C7021092A5021092A4022FC0862F7C
:1004E000413208F040E269EC72E044D01092C80258
:1004F0008093C702089521E0F2CF81E08093A302A8
:100500006093C6021092A5021092A40208950F9360
:10051000062F21E04091A40266EA72E08091C602B3
:100520006DD01092A5021092A4021092A3020F9116
:10053000089561E0ECCF87E992E0B8CF10925603BE
:1005400081E0809354031092530361E084E1A0D5CD
:1005500061E085E19DD5E9EBF0E080818E7F8083CD
:1005600080818D7F808388E48093B80085E48093C8
:10057000BC000895413208F03FC09091560391119C
:10058000FCCF91E090935603209354032FEF2093D8
:10059000E90210922E03240F20932D03909355030C
:1005A00090915503880F892B8093550380915303B5
:1005B000813041F410925303809155038093BB0026
:1005C00085EC01C085EE8093BC008091560381309C
:1005D000E1F380912E03841710F440912E032FE253
:1005E00033E0FB01D9018A2F821B841718F48D9107
:1005F0008193F9CF842F089580E008950F934132BD
:1006000008F046C0909156039111FCCF92E0909370
:100610005603009354039FEF9093E90210922E0328
:1006200040932D03FB016FE273E0DB019A2F961BD1
:10063000941718F491919D93F9CF109255039091CE
:100640005503880F892B8093550380915303813084
:1006500041F410925303809155038093BB0085ECC5
:1006600001C085EE8093BC00222321F080915603C7
:100670008230E1F38091E9028F3F61F08091E902DD
:10068000803251F08091E902803341F483E007C069
:1006900081E005C080E003C082E001C084E00F91EA
:1006A0000895613298F420915603243089F46093C0
:1006B0000B03FC018DE093E0DC012A2F281B261799
:1006C00018F421912D93F9CF80E0089581E00895E9
:1006D00082E0089585ED8093BC008091BC0084FD8C
:1006E000FCCF10925603089585EC8093BC001092C5
:1006F000560308951F920F920FB60F9211240BB656
:100700000F922F933F934F935F936F937F938F93AA
:100710009F93AF93BF93EF93FF938091B900887F2E
:10072000803609F49CC068F5883209F45BC090F407
:10073000803109F454C038F4882309F4F3C08830B8
:1007400009F44DC0F2C0883109F44CC0803209F47C
:100750005DC0EBC0803409F468C048F4803309F40C
:1007600055C0883309F0E1C08093E902A7C0803505
:1007700009F44FC0883509F45DC0883409F0D5C04C
:10078000D3C0883909F4C4C0A8F4883709F467C015
:1007900038F4883609F463C0803709F460C0C5C0F6
:1007A000883809F4B5C0803909F45FC0803809F091
:1007B000BCC05BC0803B09F483C038F4803A09F4C4
:1007C00066C0883A09F47CC0B0C0803C09F4A4C07B
:1007D000883C09F4A1C0883B09F487C0A6C0809179
:1007E000550310C090912E0380912D03981770F53A
:1007F000E0912E0381E08E0F80932E03F0E0E15D07
:10080000FC4F80818093BB0085EC83C08093E9021C
:100810008BC0E0912E0381E08E0F80932E03809198
:10082000BB00F0E0E15DFC4F808390912E0380914E
:100830002D036BC0E0912E0381E08E0F80932E0379
:100840008091BB00F0E0E15DFC4F80838091540318
:1008500081116AC081E08093530384EA5EC083E023
:10086000809356031092EA02CFCF8091EA02803241
:1008700008F04EC0E091EA0281E08E0F8093EA0218
:100880008091BB00F0E0E551FD4F8083BDCF8091AA
:10089000EA02803230F4E091EA02F0E0E551FD4FE7
:1008A000108218DF6091EA0270E0E0914F03F0914E
:1008B00050038BEE92E019951092EA0215DF35C0D5
:1008C00084E08093560310920C0310920B03E09186
:1008D0005103F0915203199580910B03811105C0CA
:1008E00081E080930B0310920D03E0910C0381E0F3
:1008F0008E0F80930C03F0E0E35FFC4F80818093C8
:10090000BB0090910C0380910B03981708F47CCFE7
:1009100085E88093BC0009C085EC8093BC001092F0
:10092000560303C01092E902D5DEFF91EF91BF910B
:10093000AF919F918F917F916F915F914F913F9177
:100940002F910F900BBE0F900FBE0F901F90189518
:10095000FC0112828FEF8183108213820895FC01C3
:100960008381882331F0611103C08FEF8183089563
:1009700011820895CF93DF93EC016A8387E992E0B7
:10098000A5DD41E06A8187E992E0B5DD91E0811162
:1009900001C090E09B8387E992E00BDD88838B8127
:1009A00090E0DF91CF910895CF93DF93EC018B819D
:1009B000882391F089818095862388836A8187E9DD
:1009C00092E09BDD688187E992E042DD87E992E071
:1009D000B0DD282F30E002C020E030E081E090E080
:1009E000232B11F080E090E0DF91CF9108950895DE
:1009F0000895DC01ED91FC910284F385E02D41E046
:100A0000199581E090E00895FC011382128222E59D
:100A100032E0318320830895DC01ED91FC91008464
:100A2000F185E02D6FEF1994DC01ED91FC910084CC
:100A3000F185E02D60E01994DC01ED91FC910284D8
:100A4000F385E02D40E0199461E0F6DF80ED97E05A
:100A500060C2CF93DF93CDB7DEB728970FB6F89477
:100A6000DEBF0FBECDBF1D8220E42E8334E13F8365
:100A700034E5388719822A8320E12B8320E52C83F3
:100A8000FC012781421710F04FEF420FFC01308527
:100A900050E0FE01E40FF51F303121F4243011F451
:100AA000218101C02581260F2068622F28960FB66C
:100AB000F894DEBF0FBECDBFDF91CF91BDCFFC015B
:100AC0006581262F246025836C60B6CFCF93DF939A
:100AD000EC01423018F08C8188608C834F836887EA
:100AE000222329F0413019F48C8184608C8364E6E0
:100AF00070E080E090E0E8D16C8164FD2EC0E88178
:100B0000F9810284F385E02D42E063E0CE0119957E
:100B100084E991E1FED1E881F9810284F385E02D39
:100B200042E063E0CE01199584E991E1F2D1E881D8
:100B3000F9810284F385E02D42E063E0CE0119954E
:100B400086E990E0E6D1E881F9810284F385E02D21
:100B500042E062E0CE01199511C06062CE016CDF07
:100B600084E991E1D6D16C816062CE0165DF86E9CE
:100B700090E0CFD16C816062CE015EDF6C816062FB
:100B8000CE015ADF84E08D83CE0199DFCE015CDF98
:100B900082E08E8366E0CE014FDFCE01DF91CF9100
:100BA0003BCF21E001C0220F6A95EAF7DC011C96D9
:100BB0002C931C971A965C934E931997ED91FC9188
:100BC0000084F185E02D60E01994FC012485222346
:100BD00091F081859285009719F4611105C006C0D6
:100BE000019721F4611102C0258701C01586658532
:100BF000CF010E96D9CE08950F931F93CF93DF9315
:100C0000EC018C01025F1F4F6B85C801B3DE0197B9
:100C100051F461E0C801A3DE1C8260E0C801C4DEBB
:100C200081E090E002C080E090E0DF91CF911F91E1
:100C30000F9108958F92AF92CF92EF920F93CF932F
:100C4000DF93CDB7DEB7FC01638714861586128665
:100C5000118681E0982F01C0990F4A95EAF7928B8F
:100C6000982F01C0990F2A95EAF7938B982F01C00E
:100C7000990F0A95EAF7948B982F01C0990FEA947F
:100C8000EAF7958B982F01C0990FCA94EAF7968BD3
:100C9000982F01C0990FAA94EAF7978B01C0880F8B
:100CA0008A94EAF7808FDF91CF910F91EF90CF90E8
:100CB000AF908F9008954F925F926F927F928F9234
:100CC000AF92CF92EF920F931F93CF93DF9300D009
:100CD000CDB7DEB73C011B894C885D882B834A83E6
:100CE000698392DE82E692E0F30191838083C301FF
:100CF0000E962EDE2B814A816981C3019BDFA20102
:100D0000612FC3010F900F900F90DF91CF911F9132
:100D10000F91EF90CF90AF908F907F906F905F90FA
:100D20004F903FCFFF920F931F93CF93DF93EC0130
:100D3000F62E8C01025F1F4F6A896F29C80134DECD
:100D40006A8960956F21C801DF91CF911F910F9142
:100D5000FF902ACE20E030E050E060FF05C0FC01AB
:100D6000E20FF31F7589572B66952F5F3F4F243095
:100D7000310599F7413011F4FC014489FC01658586
:100D8000652B642BCFCF0F931F93CF93DF93EC0191
:100D9000142F062F0F70423011F440E009C070E0AC
:100DA00084E0759567958A95E1F7CE01D3DF412FF1
:100DB000602FCE01DF91CF911F910F91CBCF0F9379
:100DC0001F93CF93DF9300D0CDB7DEB78C012B8379
:100DD0004A83698311DF2B814A816981C8010F90A1
:100DE0000F900F90DF91CF911F910F916FCE1F92B7
:100DF0000F920FB60F9211242F933F938F939F93CF
:100E0000AF93BF938091580390915903A0915A03D7
:100E1000B0915B033091570323E0230F2D3720F46B
:100E20000196A11DB11D05C026E8230F0296A11D44
:100E3000B11D209357038093580390935903A093B7
:100E40005A03B0935B0380915C0390915D03A09182
:100E50005E03B0915F030196A11DB11D80935C03F9
:100E600090935D03A0935E03B0935F03BF91AF9136
:100E70009F918F913F912F910F900FBE0F901F90D8
:100E800018953FB7F89480915C0390915D03A09111
:100E90005E03B0915F0326B5A89B05C02F3F19F0F4
:100EA0000196A11DB11D3FBF6627782F892F9A2F6C
:100EB000620F711D811D911D42E0660F771F881F13
:100EC000991F4A95D1F70895CF92DF92EF92FF9242
:100ED000CF93DF936B017C01D4DFEB01C114D1040C
:100EE000E104F10479F010D3CCDF6C1B7D0B683E7C
:100EF0007340A0F381E0C81AD108E108F108C85195
:100F0000DC4FECCFDF91CF91FF90EF90DF90CF904F
:100F10000895019739F0880F991F880F991F02973C
:100F20000197F1F70895789484B5826084BD84B503
:100F3000816084BD85B5826085BD85B5816085BDD4
:100F4000EEE6F0E0808181608083E1E8F0E01082ED
:100F5000808182608083808181608083E0E8F0E02E
:100F6000808181608083E1EBF0E080818460808318
:100F7000E0EBF0E0808181608083E1E9F0E0808156
:100F800082608083808181608083E0E9F0E08081FD
:100F900081608083E1EAF0E08081826080838081EB
:100FA00081608083E0EAF0E0808181608083E1E21B
:100FB000F1E0808182608083808181608083E0E2D3
:100FC000F1E0808181608083EAE7F0E080818460E5
:100FD0008083808182608083808181608083808142
:100FE000806880831092C100089590E0FC013197E1
:100FF000E231F10508F04BC0EE58FF4F99C28091E5
:1010000080008F7703C0809180008F7D8093800067
:10101000089580918000877FF9CF84B58F7702C0D3
:1010200084B58F7D84BD08958091B0008F7703C013
:101030008091B0008F7D8093B000089580919000E2
:101040008F7707C0809190008F7D03C080919000C2
:10105000877F8093900008958091A0008F7707C0CC
:101060008091A0008F7D03C08091A000877F809336
:10107000A0000895809120018F7707C08091200102
:101080008F7D03C080912001877F80932001089588
:101090000F931F93CF93DF931F92CDB7DEB7282F07
:1010A00030E0F901E85FFE4F8491F901E25BFE4F09
:1010B0001491F901EC56FE4F04910023C1F08823EE
:1010C00019F0698392DF6981E02FF0E0EE0FFF1FD6
:1010D000E652FE4FA591B4919FB7F8948C9161119F
:1010E00003C01095812301C0812B8C939FBF0F906B
:1010F000DF91CF911F910F91089538D2FC01818D1E
:10110000228D90E0805C9F4F821B910960E470E02B
:10111000FCC1FC01918D828D981731F0828DE80F12
:10112000F11D858D90E008958FEF9FEF0895FC01EC
:10113000918D828D981761F0828DDF01A80FB11D0E
:101140005D968C91928D9F5F9F73928F90E0089532
:101150008FEF9FEF08958CEE99E0892B39F080E0B6
:1011600090E0892B19F038D1811125C080E090E002
:10117000892B41F080E090E0892B21F00E94000053
:1011800081111CC080E090E0892B41F080E090E06C
:10119000892B21F00E940000811113C080E090E0B3
:1011A000892BA1F080E090E0892B81F00E94000063
:1011B00081110AC008950E940000D8CF0E9400004B
:1011C000E1CF0E940000EACF0C9400000895FC01DA
:1011D000848DDF01A80FB11DA35ABF4F2C91848DC0
:1011E00090E001968F739927848FA689B7892C93F5
:1011F000A089B1898C9180648C93938D848D981390
:1012000006C00288F389E02D80818F7D8083089558
:10121000CF93DF93EC01888D8823C1F0EA89FB89A5
:10122000808185FD05C0A889B9898C9186FD0EC095
:101230000FB607FCF5CF808185FFF2CFA889B98969
:101240008C9185FFEDCFCE01C2DFE8CFDF91CF914A
:101250000895CF92DF92FF920F931F93CF93DF9366
:101260001F92CDB7DEB76C01DC015B969C915B975A
:101270005C968C915C97981307C05096ED91FC9109
:101280005197808185FD31C0F601038D10E00F5F1D
:101290001F4F0F731127F02EF601848DF81210C026
:1012A0000FB607FCF9CFD6015096ED91FC915197FE
:1012B000808185FFF1CFC601698389DF6981ECCF29
:1012C000838DE80FF11DE35AFF4F6083D6015B96D3
:1012D0000C935B975296ED91FC91539780818062BD
:1012E000808381E058968C930DC0D6015696ED917F
:1012F000FC91579760835096ED91FC9151978081B6
:101300008064808381E090E00F90DF91CF911F9106
:101310000F91FF90DF90CF9008951F920F920FB61C
:101320000F9211240BB60F922F938F939F93EF93ED
:10133000FF93E0917003F09171038081E091760357
:10134000F091770382FD12C09081809179038F5FC5
:101350008F7320917A03821751F0E0917903F0E0C6
:10136000E05AFC4F958F8093790301C08081FF91F3
:10137000EF919F918F912F910F900BBE0F900FBE09
:101380000F901F9018951F920F920FB60F92112475
:101390000BB60F922F933F934F935F936F937F936F
:1013A0008F939F93AF93BF93EF93FF9380E693E068
:1013B0000EDFFF91EF91BF91AF919F918F917F9140
:1013C0006F915F914F913F912F910F900BBE0F90B6
:1013D0000FBE0F901F90189580E693E08FDE21E0FE
:1013E000892B09F420E0822F089510926303109254
:1013F000620388EE93E0A0E0B0E0809364039093F2
:101400006503A0936603B093670382E792E090932D
:1014100061038093600385EC90E090936D0380936B
:101420006C0384EC90E090936F0380936E0380ECE8
:1014300090E0909371038093700381EC90E090931F
:1014400073038093720382EC90E090937503809312
:10145000740386EC90E09093770380937603109268
:10146000790310927A0310927B0310927C03089503
:10147000089559DDFDDF0E945001CBEAD8E00E94BB
:10148000AA012097E1F367DEFACFCF92DF92EF92C5
:10149000FF920F931F93CF93DF936C017A01EB01BF
:1014A000E60EF71E00E010E0CE15DF0561F0699151
:1014B000D601ED91FC910190F081E02DC6011995C6
:1014C000080F191FF1CFC801DF91CF911F910F9124
:1014D000FF90EF90DF90CF9008956115710581F036
:1014E000DB010D900020E9F7AD0141505109461B89
:1014F000570BDC01ED91FC910280F381E02D1994F2
:1015000080E090E00895E9CF089597FB072E16F448
:10151000009406D077FD08D015D007FC05D03EF426
:10152000909581959F4F0895709561957F4F08958F
:10153000EE0FFF1F0590F491E02D19940790F6919E
:10154000E02D1994AA1BBB1B51E107C0AA1FBB1FAA
:10155000A617B70710F0A61BB70B881F991F5A953F
:10156000A9F780959095BC01CD01089581E090E0A8
:08157000F89400C0F894FFCFCD
:1015780048656C6C6F2C20776F726C642100484949
:1015880021596F75724475696E6F2E636F6D0055C2
:1015980073652053657269616C204D6F6E005479D4
:1015A800706520746F20646973706C617900000045
:1015B80000002802FC01D101D901EC01FB01000067
:1015C8000000F904450A6605F704F8047D080000E0
:1015D8000000F904450ADF06D105E505C306000049
:0E15E80000002909450A7E08970889080809AD
:00000001FF
